:020000040800F2
:1000000008BD002079020008810200088302000870
:10001000850200088702000889020008000000002D
:100020000000000000000000000000008B0200083B
:100030008D0200080000000027080008614C00083D
:10004000930200089302000893020008930200083C
:10005000930200089302000893020008930200082C
:10006000930200089302000893020008930200081C
:10007000930200089302000893020008930200080C
:100080009302000893020008930200081D0B000869
:10009000D5080008930200089302000893020008A4
:1000A00093020008930200089302000893020008DC
:1000B00093020008930200089302000893020008CC
:1000C00093020008930200089302000893020008BC
:1000D00093020008BD500008255100088D5100080A
:1000E000930200089302000893020008930200089C
:1000F000930200089302000893020008930200088C
:10010000930200089302000893020008930200087B
:10011000930200089302000893020008930200086B
:10012000930200089302000893020008930200085B
:1001300093020008C515000893020008190E000874
:10014000450B000893020008930200089302000880
:100150009302000893020008930200080552000869
:10016000930200089302000893020008930200081B
:10017000930200089302000893020008930200080B
:10018000930200089302000800F002F800F065F8FE
:100190000AA090E8000C82448344AAF10107DA45E2
:1001A00001D100F05AF8AFF2090EBAE80F0013F0CF
:1001B000010F18BFFB1A43F00103184774F4000045
:1001C00094F400000A444FF0000C10F8013B13F0C7
:1001D000070408BF10F8014B1D1108BF10F8015BA0
:1001E000641E05D010F8016B641E01F8016BF9D193
:1001F00013F0080F1EBF10F8014BAD1C0C1B09D1EA
:100200006D1E58BF01F801CBFAD505E014F8016B5B
:1002100001F8016B6D1EF9D59142D6D370470000ED
:100220000023002400250026103A28BF78C1FBD8FF
:10023000520728BF30C148BF0B6070471FB50FF091
:100240003EF89DE8030000F0D3F900F029F91FBD46
:1002500010B5002000F086F910BD00F026FA114616
:10026000FFF7ECFF0DF082FE00F05EFA03B4FFF73B
:10027000EFFF03BC00F096FA0948804709480047A1
:10028000FEE7FEE7FEE7FEE7FEE7FEE7FEE7FEE746
:10029000FEE7FEE704480549054A064B70470000A3
:1002A000C54D00088901000808B7002008BD0020DE
:1002B00008B9002008B9002072B6704762B67047CE
:1002C000EFF3108072B6704780F31088704730BF2C
:1002D000704720BF7047B0FA80F0704790FAA0F0E6
:1002E000B0FA80F0704790FAA0F070472DE9F04125
:1002F000074615460E46102000F0FAF804000AD012
:100300006760C4E9026500F0EFF8016821600460ED
:100310000020BDE8F0810120FBE7032A40F2308095
:1003200010F0030C00F0158011F8013BBCF1020F36
:10033000624498BF11F801CB00F8013B38BF11F8B7
:10034000013BA2F1040298BF00F801CB38BF00F8CE
:10035000013B11F0030300F02580083AC0F008804B
:1003600051F8043B083A51F804CBA0E80810F5E72F
:10037000121D5CBF51F8043B40F8043BAFF3008012
:10038000D20724BF11F8013B11F801CB48BF11F887
:10039000012B24BF00F8013B00F801CB48BF00F857
:1003A000012B704710B5203AC0F00B80B1E818500F
:1003B000203AA0E81850B1E81850A0E81850BFF44F
:1003C000F5AF5FEA027C24BFB1E81850A0E81850EE
:1003D00044BF18C918C0BDE810405FEA827C24BF42
:1003E00051F8043B40F8043B08BF7047D20728BFD0
:1003F00031F8023B48BF11F8012B28BF20F8023B1F
:1004000048BF00F8012B70474FF000020429C0F0EC
:10041000128010F0030C00F01B80CCF1040CBCF136
:10042000020F18BF00F8012BA8BF20F8022BA1EB88
:100430000C0100F00DB85FEAC17C24BF00F8012B6D
:1004400000F8012B48BF00F8012B70474FF0000265
:1004500000B5134694469646203922BFA0E80C50BA
:10046000A0E80C50B1F12001BFF4F7AF090728BF95
:10047000A0E80C5048BF0CC05DF804EB890028BF11
:1004800040F8042B08BF704748BF20F8022B11F03A
:10049000804F18BF00F8012B7047704770477047B6
:1004A00070B5064C7C44064D7D4403E02068204432
:1004B0008047241DAC42F9D170BD0000A8F10000B6
:1004C000D0F100002DE9F04117460E46054633B144
:1004D00007FB0354E41B2046B047A542FAD1A5F11F
:1004E0000800BDE8F081000000487047E0B6002039
:1004F00070B5064600F05CF8056806F10B0020F0C8
:100500000704B4429CBF002070BD2B466A68BAB194
:100510001068A04210D304F1080188423CBF506823
:10052000586007D35168101941601168091B0160B8
:1005300058601460101D70BD13465268002AE7D140
:100540002146284600F040F80028DED170BD10B5E5
:1005500000F032F8006810BD10B5044600F02CF829
:10056000046010BD2DE9F0410646FFF7BDFF80464F
:10057000454613E016B1E068B0420ED1206828600D
:10058000D4E90101D8F800708847204600F066F8E9
:10059000D8F80000B842EBD100E025462C68002CCA
:1005A000E8D1BDE8F081000000487047A8B60020FF
:1005B00000487047B0B6002000487047A8B6002039
:1005C000704770477047704738B504460A460020A8
:1005D0006946AFF30080002808BF38BD0246009985
:1005E000204600F087F8012038BD012000F0A5B8B2
:1005F000F8B5AFF30080054600200C46102000BF80
:100600000646A819A0420DD9324669460020AFF32C
:100610000080070008BF00F090F80098A04218BFC3
:100620000546C419FFF7C4FF05600746F01D20F01A
:1006300007004619284600F00AF8B44208BFF8BD82
:10064000A21B31463868BDE8F84000F053B80021DD
:100650000160C0E9011070471020704770B5044672
:10066000051FFFF7A5FF0068002C14BF446870BD8C
:10067000002C18BFAC423CBF20466468F8D3016828
:100680000A18AA4218BF456003D12A6805461144DA
:10069000016028684119A1421CBF6C6070BD61688F
:1006A000696021680844286070BD7546FFF77CFFCB
:1006B000AE4605006946534620F00700854618B04F
:1006C00020B5FFF7E7FDBDE820404FF000064FF0F2
:1006D00000074FF000084FF0000B21F00701AC4677
:1006E000ACE8C009ACE8C009ACE8C009ACE8C00996
:1006F0008D467047034640688C46002818BF8842E4
:100700003CBF03464068F8D318681844884207D0B5
:100710000CF1030020F00700001D411A521A014697
:10072000081D0A60FFF79ABF10B50446AFF30080BA
:100730002046BDE81040FFF799BD10B500F00AF85B
:10074000BDE8104000F001B87047002801D000F06B
:1007500029B8704710B5012805D0002103A000F08A
:1007600027F8012010BD09A1F8E7000053494752BE
:10077000544D454D3A204F7574206F662068656171
:1007800070206D656D6F7279000000003A20486539
:100790006170206D656D6F727920636F7272757014
:1007A0007465640001491820ABBEFEE72600020014
:1007B00070B505460C460A2000E06D1C00F011F8EB
:1007C00035B128780028F8D102E0641C00F009F85F
:1007D00014B120780028F8D1BDE870400A20AFF3AA
:1007E000008008B569468DF800000320ABBE08BD47
:1007F00022484FF6FF710170002080F309882048DD
:10080000016881F308881F484FF08051016062B68B
:10081000FEE71C484FF080510160704719484FF0C7
:1008200080510160704772B6EFF3098050B11EF03D
:10083000100F08BF20ED108A203880E8F00F124911
:100840000968086000B5114880475DF804EB10485E
:1008500010490A7802700C480F490A680260106853
:1008600090E8F00F20301EF0100F08BFB0EC108A97
:1008700080F309884EF0040E62B6704722ED00E066
:100880003817002004ED00E0301700201D2F00086D
:10089000AE160020AF1600203417002010B5044615
:1008A0000423182202490348FFF70CFE10BD000084
:1008B00097CD00080865002010B504460423F422F3
:1008C00002490348FFF7FEFD10BD0000C1A9000862
:1008D000AC55002010B52DED028BB1EE040AB0EE40
:1008E000408A00BF00BFFFF7EBFC044600BF00BF1B
:1008F00001F0C4F800BF00BF2046FFF7E5FC00BFD1
:1009000000BF7F4A00217F4800F0CDFB7C48006893
:10091000B0F5017F76D009DC202812D0A0F20120AA
:1009200080B101283ED002286DD16FE0A0F20520F1
:10093000002869D00B2868D0A0F251100028F3D10C
:10094000C6E0D7E0704890F8400030B900216F4809
:10095000C0F8DC10C0F8E0101DE069480CF092FA15
:1009600000EE100AB8EEC00AF7EE000A60EE200AA8
:10097000664890ED391A80EE810ADFED650A80EE57
:10098000201AB0EE000A21EE000ADFED620A20EE26
:10099000200A80ED040A5C480089401C81B25A4854
:1009A0000181A7E0584890F8400030B9002157482D
:1009B000C0F8D011C0F8D4111DE051480CF062FA13
:1009C00000EE100AB8EEC00AF7EE000A60EE200A48
:1009D0004E4890ED761A80EE810A9FED4D1AC0EEDA
:1009E000010AB0EE000A20EE800ADFED4A0A20EE8E
:1009F000200A80ED410A44484089401C81B24248A7
:100A0000418177E032E074E060E060E03E4890F8D9
:100A1000400030B900213D48C0F8C412C0F8C812E7
:100A20001DE037480CF02EFA00EE100AB8EEC00AAE
:100A3000F7EE000A60EE200A344890EDB31A80EE1B
:100A4000810A9FED331AC0EE010AB0EE000A20EED3
:100A5000800ADFED300A20EE200A80ED7E0A2A4867
:100A60008089401C81B22848818143E0264890F863
:100A7000400030B900212548C0F8B813C0F8BC13B5
:100A80001DE01F480CF0FEF900EE100AB8EEC00A97
:100A9000F7EE000A60EE200A1C4890EDF01A80EE96
:100AA000810A9FED1B1AC0EE010AB0EE000A20EE8B
:100AB000800ADFED180A20EE200A80EDBB0A1248FA
:100AC000C089401C81B21048C18113E012E011E0DE
:100AD00011480B49D1F80B10C1670949D1F80F1023
:100AE000C0F880100848008A401C81B20648018284
:100AF00000E000BF00BF00F0D7FFBDEC028B10BDCF
:100B0000481700200064004050550020AC550020DC
:100B100000007042DB0F49405060002010B500BF5C
:100B200000BFFFF7CDFB044600BF00BF00F0A6FFEB
:100B300000BF00BF2046FFF7C7FB00BF00BF00F0AB
:100B4000B3FF10BD70B52DED028BB1EE040AB0EE0F
:100B5000408A00BF00BFFFF7B3FB044600BF00BFE1
:100B600000F08CFF00BF00BF2046FFF7ADFB00BFC9
:100B700000BF9F4A00219F4800F095FA9C480068FA
:100B800040F20322811A90427ED005DCA0F20120BF
:100B900038B1012879D14AE0012977D00D29F9D15E
:100BA0001DE193480CF068F9054600222946924859
:100BB0000CF0F2F8914890F8400038B900218E48C6
:100BC000D438C0F8DC10C0F8E0102FE08C48006882
:100BD000401C8B49086086480CF054F900EE100A5E
:100BE000B8EEC00AF7EE000A20EE200A8248D43898
:100BF000D0ED390A80EE201A80ED041A90ED380A03
:100C0000B8EEC00AF7EE000A60EE200A90ED3A0A4C
:100C1000B8EEC01A80EE810A90ED391AC0EE010AD2
:100C20009FED780A20EE800A80ED1D0AD9E0704819
:100C30000CF022F90546002229466F48F4300CF0EA
:100C4000ABF86E4890F8400038B900216A48D438B3
:100C5000C0F8D011C0F8D41133E06B480068401CD4
:100C60006949086062480CF00DF900EE100AB8EE10
:100C7000C00AF7EE000A20EE200A5F48D438D0ED13
:100C8000760A80EE201A02E01CE0A9E060E080ED28
:100C9000411A90ED750AB8EEC00AF7EE000A60EE50
:100CA000200A90ED770AB8EEC01A80EE810A90ED26
:100CB000761AC0EE010A9FED530A20EE800A80EDFD
:100CC0005A0A8EE04A480CF0D7F805460022294619
:100CD0004E480CF061F8494890F8400038B90021BE
:100CE0004548D438C0F8C412C0F8C8122FE04848AC
:100CF0000068401C464908603D480CF0C3F800EE0F
:100D0000100AB8EEC00AF7EE000A20EE200A3A48B0
:100D1000D438D0EDB30A80EE201A80ED7E1A90ED23
:100D2000B20AB8EEC00AF7EE000A60EE200A90EDB3
:100D3000B40AB8EEC01A80EE810A90EDB31AC0EE84
:100D4000010A9FED300A20EE800A80ED970A48E004
:100D500027480CF091F80546002229462B48F4302C
:100D60000CF01AF8254890F8400038B900212248C4
:100D7000D438C0F8B813C0F8BC132FE01C480CF0EE
:100D800081F800EE100AB8EEC00AF7EE000A20EE75
:100D9000200A1948D438D0EDF00A80EE201A80EDF0
:100DA000BB1A90EDEF0AB8EEC00AF7EE000A60EE4B
:100DB000200A90EDF10AB8EEC01A80EE810AD0ED5B
:100DC000F00A80EE201A9FED0F0A21EE000A80ED56
:100DD000D40A10480068401C0E49086001E000E099
:100DE00000BF00BF00F060FEBDEC028B70BD0000D4
:100DF0006817002000680040D45C00205055002097
:100E00001C0000200000B44320000020BC5E002035
:100E1000180000201400002010B500BF00BFFFF72D
:100E20004FFA044600BF00BF00F028FE00BF00BF1D
:100E30002046FFF749FA00BF00BF00F035FE10BDA5
:100E400010B504460B48844209D10121480603F03D
:100E500063FE00214FF0007003F05EFE08E0012108
:100E6000880603F059FE00214FF0806003F054FE25
:100E700010BD00000064004010B50021837A0122FB
:100E800002FA03F13D4A126842F001023B4B1A603C
:100E90003A4A1C3212688A43384B1C331A60027B70
:100EA000CAB9364A0C3212688A43344B0C331A6082
:100EB0004288C38842EA0343304A4032847A42F887
:100EC00034300288838842EA03432C4A4032847AD1
:100ED00002EBC4025360027B012A19D1274A0C326B
:100EE00012680A43254B0C331A604288038842EA91
:100EF0000343224A4032847A42F83430C2888388DD
:100F000042EA03431D4A4032847A02EBC402536032
:100F1000C27A3AB9194A121D12688A43174B1B1D2F
:100F20001A6006E0154A121D12680A43134B1B1D76
:100F30001A60028932B9114A143212688A430F4B7F
:100F400014331A600289012A06D10C4A143212683D
:100F50000A430A4B14331A60427B012A06D1074A1E
:100F60001C3212680A43054B1C331A60034A12688C
:100F700022F00102014B1A6010BD00000066004023
:100F80001AB143690B43436102E043698B434361F8
:100F9000704730B5024600200023146824F0020494
:100FA0001460146844F00104146000E05B1C546891
:100FB00004F001041CB94FF6FF74A342F6D1546843
:100FC00004F001040CB900206CE08C79012C04D1F0
:100FD000146844F08004146003E0146824F0800472
:100FE0001460CC79012C04D1146844F040041460DE
:100FF00003E0146824F0400414600C7A012C04D13E
:10100000146844F02004146003E0146824F0200401
:1010100014604C7A012C04D1146844F0100414605C
:1010200003E0146824F0100414608C7A012C04D1BD
:10103000146844F00804146003E0146824F0080401
:101040001460CC7A012C04D1146844F004041460B8
:1010500003E0146824F0040414608C78A407CD78AD
:1010600044EA05640D7944EA05444D7944EA05549F
:101070000D886D1E2C43D461146824F001041460A3
:10108000002300E05B1C546804F001041CB14FF61F
:10109000FF74A342F6D1546804F001040CB100209F
:1010A00000E0012030BD10B500F5D87303EB01134B
:1010B0001B6803F004031372137A53B900F5D87355
:1010C00003EB01131B6840F2FF7404EA53531360EF
:1010D00009E000F5D87303EB01131B686FF060445F
:1010E00004EAD303536000F5D87303EB01131B68C4
:1010F00003F00203537200F5D87303EB01135B682E
:1011000003F00F03937200F5D87303EB01135B68D0
:101110001B0AD37400F5D87303EB01139B68D372D9
:1011200000F5D87303EB01139B681C0A147300F5D8
:10113000D87303EB01139B681C0C547300F5D87330
:1011400003EB01139B681B0E937300F5D87303EB3D
:101150000113DB68D37300F5D87303EB0113DB686D
:101160001C0A147400F5D87303EB0113DB681C0C24
:10117000547400F5D87303EB0113DB681B0E9374F2
:1011800021B9C36843F02003C36003E0036943F05F
:101190002003036110BD10B502460020936803F0E0
:1011A0008063B3F1806F00D110E0936803F00063B7
:1011B000B3F1006F01D1012008E0936803F0805380
:1011C000B3F1805F01D1022000E00420042874D034
:1011D00002F5C07303EB00131B6803F0010402F572
:1011E000C07303EB00131C600B7A7BB94B7A0C883D
:1011F00043EA445302F5C07404EB0014246823430B
:1012000002F5C07404EB0014236010E00B7A4C6804
:1012100043EAC4034C7A234302F5C07404EB001480
:101220002468234302F5C07404EB001423608B7A16
:1012300003F00F038B7202F5C07303EB00135B68BE
:1012400023F00F0402F5C07303EB00135C6002F59A
:10125000C07303EB00135B688C7A234302F5C07400
:1012600004EB001463608B7B1C064B7B44EA034455
:101270000B7B44EA0323CC7A234302F5C07404EBCE
:101280000014A3608B7C1C064B7C44EA03440B7C5B
:1012900044EA0323CC7B234302F5C07404EB00141F
:1012A000E36002F5C07303EB00131B6843F0010415
:1012B00002F5C07303EB00131C6010BD10B509F0FC
:1012C000BBFC09F0C3FC10BD10B5002400BF00BF7B
:1012D000FEF7F6FF044600BF00BF1021054800F0EE
:1012E00081FA00BF00BF2046FEF7EEFF00BF00BF3F
:1012F00010BD0000006B002001490860704700002D
:101300006816002010B506F0A7FB044608480068E0
:1013100040F0807006490860002006494860084691
:10132000006840F0010008602046FFF7E5FF10BDAF
:10133000FCED00E0001000E0014948687047000043
:10134000001000E00246094B9A4201D2084801E031
:101350000648103801F000531BB1064B0B40C36028
:1013600002E0044B0B4083607047000010640240B1
:10137000006002407D0F7D0F21B1026842F0010242
:10138000026003E0026822F0010202607047000080
:10139000016821F00101016000210160416081606C
:1013A000C1600161212141614A49884204D13D2146
:1013B000484A103A91608CE046491831884205D17C
:1013C0004FF47461434A103A916082E041493031F0
:1013D000884205D14FF474113E4A103A916078E08A
:1013E0003C494831884205D14FF07461394A103A7E
:1013F00091606EE037496031884204D13649354A00
:10140000103AD16065E033497831884204D13349DC
:10141000304A103AD1605CE02E499031884204D1C4
:101420002F492C4A103AD16053E02A49A83188420A
:1014300005D14FF03D51274A103AD16049E0294982
:10144000884204D13D21274A083A116041E02549EC
:101450001831884205D14FF47461224A083A11606C
:1014600037E020493031884205D14FF474111D4ACC
:10147000083A11602DE01B494831884205D14FF0F0
:101480007461184A083A116023E0164960318842B5
:1014900004D11149134A121F11601AE01149783121
:1014A000884204D10D490F4A121F116011E00D4905
:1014B0009031884204D10A490A4A121F116008E09B
:1014C0000849A831884204D14FF03D51054A121F06
:1014D00011607047106002403D000020400F002066
:1014E00000003D20106402400146486880B2704709
:1014F00010B501F080034BB122B1436943F0800382
:10150000436103E0436923F08003436180290BD0EA
:101510002AB1036801F01E042343036004E003685A
:1015200001F01E04A343036010BD000010B50022AB
:101530000268134B1A40CC680B6823434C69234361
:101540008C692343CC6923430C6A23434C6A2343AD
:101550008C6A23434C6B23438C6B23431A430260F6
:10156000426922F00702D1E90B3423431A43426156
:101570000B6943604B6883608B68C36010BD0000DB
:101580003F801CF001494861704700000090024014
:1015900001460868C0F30D40704700B502460023BD
:1015A000106800F0004058B9106800F4004038B9E5
:1015B000106800F4807018B11046FFF7E9FF034689
:1015C000184600BD10B501E006F04EFA0648006866
:1015D000FFF7E3FF0028F7D14020FFF7D3FF4FF4D8
:1015E0008030FFF7CFFF10BD5C16002051B18200A4
:1015F000A2F1C042126842F001038200A2F1C0428F
:10160000136009E08200A2F1C0421268034B1A4045
:101610008300A3F1C0431A6070470000FEFF0F0073
:10162000D0E901121143C2681143026911434269B2
:10163000114382691143C2691143026A1143426A2C
:101640001143826A1143C26A1143026B114302685B
:101650009200A2F1C0421160816808290BD1016893
:101660008900A1F1C041096841F040020168890088
:10167000A1F1C0410A60416B0968426B526841EABE
:101680000211426B926841EA0221426B928941EA5F
:101690000241426B128A41EA0251426B127D41EAD9
:1016A0000261426B926911430268521C9200A2F1DE
:1016B000C0421160C16AB1F5804F1BD1816B0968CE
:1016C000826B526841EA0211826B926841EA022100
:1016D000826B128A41EA0251826B127D41EA0261F9
:1016E000826B9269114302689200A2F1C042C2F873
:1016F000041107E06FF0704201688900A1F1C04158
:10170000C1F804217047F0B50A46002100230024E7
:1017100000BF3DE0012505FA01F3156805EA030461
:101720009C4234D105684F000326BE40B543056096
:1017300015794E00B5400668354305601579012DD1
:1017400002D01579022D16D185684F000326BE40C0
:10175000B543856055794E00B54086683543856050
:10176000456801268E40B5434560456896798E40B0
:10177000B6B235434560C5684F000326BE40B54349
:10178000C560D5794E00B540C6683543C560491C73
:101790001029BFD3F0BDF0B5002300244D07ED0E96
:1017A00002FA05F3CE1000F1200555F826504E0739
:1017B000F70E0F26BE40B543CF1000F1200646F8C5
:1017C0002750CE1000F1200555F8265045EA0304B5
:1017D000CE1000F1200545F82640F0BD418370474A
:1017E0000183704730B505460C4622460021284645
:1017F00000F001F830BD2DE9F04105460B46944656
:101800000027002402E03F021F43641C042CFAD38B
:10181000604605F00306294646B1344603E001F868
:10182000013B401E641C08B1042CF8D30A4601E0B9
:1018300080C2001F0428FBD2114602E001F8013BE0
:10184000401E0028FAD1BDE8F081000070B50021EB
:1018500000230F22C4781CB3174C246804F4E064FE
:10186000C4F5E064C4F30721C1F10404E3B20A4102
:1018700044789C40E1B28478144021430C07210E47
:101880000E4C05786155047804F01F050124AC4026
:1018900005786D11AD0005F1E025C5F8004109E0BE
:1018A000047804F01F050124AC40054D067876113C
:1018B00045F8264070BD00000CED00E000E400E0BB
:1018C00080E100E002490143024A116070470000D4
:1018D0000000FA050CED00E07047000010B5034869
:1018E000006810B101480068804710BD80160020D4
:1018F00070B5044600F0AEF8002041490870414937
:1019000008704149087041490860414908604149EF
:1019100008704149087041490870414908604149CF
:101920000860414908604148006858B1404805686E
:1019300045B13E48066803E0761E002028602D1D54
:10194000002EF9D100203B4908603B4908603B4923
:1019500008603B4908603B4908603B4908603B49D7
:1019600008603B49087002F009F802F043F820468D
:1019700001F056FD208800B170BD204601F0B6FD93
:10198000208800B1F8E7204601F0BCFD208800B1B6
:10199000F2E7204601F036FE208800B1ECE7204651
:1019A00002F01CF8208800B1E6E7204602F0E2F8D9
:1019B000208800B1E0E7204602F0A6FB208800B1B5
:1019C000DAE7204601F05AFD208800B1D4E720462E
:1019D00002F006FF208800B1CEE7204602F0DEFAD2
:1019E000208800B1C8E7204602F05EFF208800B1E1
:1019F000C2E701F041FCFFF76FFF00BFBCE700004A
:101A00009416002095160020C816002030170020DC
:101A100034170020AE160020AF160020B0160020AC
:101A2000BC160020C0160020C416002004F30008D5
:101A300000F3000874160020781600207C160020A1
:101A40008016002084160020881600208C160020A6
:101A5000F6160020064800680649096800EB810078
:101A6000054908600846006820F0070008607047D4
:101A700000F3000804F30008381700200848007835
:101A8000012800D0704707480078FA2800DBF9E702
:101A900004480078401C0349087000BFF2E70000CA
:101AA000951600209416002010B500242D480078CB
:101AB000012800D010BD00BFFEF702FC044600BFA5
:101AC0002948007828B900BF2046FEF7FDFB00BF7B
:101AD000F0E725480078401E234908700846007842
:101AE000002805DD00BF2046FEF7EEFB00BFE1E762
:101AF0001E480078002805DD00BF2046FEF7E4FB05
:101B000000BFD7E701F026FF1949087008460078A2
:101B100000EB4000174951F82000174908600846BB
:101B2000006816490968884205D100BF2046FEF7C3
:101B3000CBFB00BFBEE710480068D0F88400401C13
:101B40000D490968C1F884000D480068401C0C4923
:101B50000860FEF763FE00BF2046FEF7B5FB00BF3E
:101B600000BFA7E79516002094160020C816002095
:101B7000AF160020147C00203417002030170020FE
:101B8000EC1600202DE9F04104460E4615460027CC
:101B90001B480078002804DD42F6E1602880BDE89B
:101BA000F0811CB945F6C3502880F8E700BF00BF9C
:101BB000FEF786FB074600BF00BF12482060666044
:101BC0000020206284F82500A062402084F82400D0
:101BD00004F1080001F0CDFD204601F0FBFC0A48AD
:101BE0000088401C0849088000BF00BF3846FEF747
:101BF0006BFB00BF00BF0020288000BFCFE70000C4
:101C0000941600204D555458AC1600202DE9F0478D
:101C100088B00546894690461C46109E4FF0000A43
:101C20008A480078002805DD46F2AE10308008B002
:101C3000BDE8F0871DB945F6C3503080F7E7B8F12D
:101C4000000F03D0B8F5004F02D100E000BF03E061
:101C500045F625603080EAE700BF7D492868884264
:101C600003D045F6C4503080E1E70CB1002020607D
:101C700000BF00BFFEF724FB824600BF00BF95F8FF
:101C80002500C0B97348006828627248006890F85F
:101C9000370085F82400012085F825000CB1A86ADA
:101CA000206000BF00BF5046FEF70EFB00BF00BF24
:101CB00000203080BBE76749286A0968884212D152
:101CC00095F82500401C85F825000CB1A86A206015
:101CD00000BF00BF5046FEF7F7FA00BF00BF45F255
:101CE00082703080A3E708F4004050B100BF00BF0D
:101CF0005046FEF7E9FA00BF00BF46F2B010308050
:101D000095E75548007800280ADD00BF00BF50461F
:101D1000FEF7DAFA00BF00BF46F66350308086E770
:101D20002F6A97F837004B49096891F837108842B5
:101D30003ADD97F8360008282AD2DFE800F00415CB
:101D40001E1F17162021384601F0BAFE41480068D0
:101D500090F8370087F8370097F8370001F01AFE3F
:101D6000384601F06FFE1EE000BF00BF3948006832
:101D700090F8370087F8370015E000BF00BF00BFBC
:101D80003448006890F83710384601F0CFFC0AE07C
:101D900000BF00BF5046FEF797FA00BF00BF46F6EF
:101DA0002D60308043E700BF4B4604222946684639
:101DB00001F034FC00BF00BF5046FEF785FA00BFBB
:101DC00000BF00F005F900BF00BFFEF779FA8246B8
:101DD00000BF00BF1F48006890F8350030B10128EF
:101DE0000CD002281AD0032821D110E01CB11948C8
:101DF0000068006C2060002030801CE01CB1154899
:101E00000068006C206046F2A910308013E00CB12D
:101E10000020206047F2D92030800CE01CB10D4832
:101E20000068006C206045F6C250308003E046F642
:101E30002E60308000BF00BF00BF00BF5046FEF7DD
:101E400043FA00BF00BF00BFF1E600009416002077
:101E50004D55545830170020C81600202DE9F84F72
:101E60000446884615464FF0000A55480078002879
:101E700004DD46F20E202880BDE8F88F1CB945F637
:101E8000C3502880F8E7B8F1000F03D0B8F5004F31
:101E900002D100E000BF03E045F625602880EBE7B3
:101EA00000BF48492068884203D045F6C4502880C6
:101EB000E2E700BF00BFFEF703FA824600BF00BFA3
:101EC0004149206A096888420AD000BF00BF5046D5
:101ED000FEF7FAF900BF00BF45F281702880CBE71A
:101EE000FFF72AFA0746A76294F82500401E84F8F7
:101EF000250094F8250000280ADD00BF00BF5046E9
:101F0000FEF7E2F900BF00BF45F283702880B3E717
:101F100004F10809B9F8080068B90020206284F8C3
:101F2000250000BF00BF5046FEF7CEF900BF00BF3E
:101F300000202880A0E72448006890F8370094F833
:101F40002410884219D02048006801F0B9FD94F8A7
:101F500024001D49096881F837001B49096891F878
:101F6000370001F017FD1848006801F08BFD164896
:101F7000006890F8370015490870D9F800008668A5
:101F8000266296F8370084F82400012084F82500A2
:101F900000231A4631462046009701F05BFC00BF43
:101FA00000BF5046FEF790F900BF00BF08F40040A4
:101FB00008B900F00DF80020288000BF5CE70000A1
:101FC000941600204D55545830170020AE160020AE
:101FD00010B500241F480078002800DD10BD1E4801
:101FE0000078002800DDF9E700BFFEF769F9044634
:101FF00000BF01F0AFFC194908700846007800EBFB
:102000004000174951F8200016490860084600684A
:1020100015490968884205D100BF2046FEF754F9EA
:1020200000BFDBE70F480068D0F88400401C0D4972
:102030000968C1F884000D480068401C0B4908601D
:10204000FEF7E7FB00BF2046FEF73EF900BF00BFEA
:10205000C4E7000094160020C8160020AF16002028
:10206000147C00203417002030170020EC160020CC
:1020700070B50446002518480078002803DD46F6B0
:102080006250208070BD15480078012803D045F6C5
:1020900089602080F6E712480078FA2803DB45F2D1
:1020A00009202080EEE700BF00BFFEF709F90546D2
:1020B00000BF00BF0A480078401C0949087001F0C1
:1020C0002DFD00BF00BF2846FEF7FEF800BF00BF91
:1020D0000020208000BFD5E7941600209516002030
:1020E000C816002070B50446002520480078002856
:1020F00003DD46F66550208070BD1D48007801283C
:1021000003D045F689602080F6E71A48007818B9B0
:1021100046F664502080EFE700BF00BFFEF7D0F81E
:10212000054600BF00BF13480078401E11490870E3
:102130000846007800280ADD00BF00BF2846FEF7E9
:10214000C3F800BF00BF46F663502080D4E701F01B
:10215000F3FC00BF00BF2846FEF7B6F800BF00BF83
:10216000FFF736FF0020208000BFC5E7941600204F
:1021700095160020C81600202DE9F04788B00646C5
:10218000894690461C46109D4FF0000A6048007832
:10219000002806DD46F2AE102880002008B0BDE819
:1021A000F08726B945F6C35028800020F6E7B8F13D
:1021B000000F03D0B8F5004F02D100E000BF04E0EB
:1021C00045F6256028800020E8E700BF51493068C7
:1021D000884204D045F6C45028800020DEE70CB1C8
:1021E0000020206000BF00BFFEF76AF8824600BFF3
:1021F00000BF306A88B1306A401E30620CB1706A2C
:102200002060376A00BF00BF5046FEF75DF800BF90
:1022100000BF002028803846C0E708F4004060B1C5
:10222000376A00BF00BF5046FEF74EF800BF00BF40
:1022300046F2B01028803846B0E7374800780028CA
:102240000BDD00BF00BF5046FEF73EF800BF00BFE9
:1022500046F6635028800020A0E74B460622314610
:10226000684601F0DBF900BF00BF5046FEF72CF8CE
:1022700000BF00BFFFF7ACFE00BF00BFFEF720F8B5
:10228000824600BF00BF2548006890F8350030B195
:1022900001280CD002281AD0032821D110E01CB14B
:1022A0001E480068006C20600020288024E01CB1DB
:1022B0001A480068006C206046F2A91028801BE0D4
:1022C0000CB10020206047F2D920288014E01CB116
:1022D00012480068006C206045F6C25028800BE070
:1022E00046F62E60288000BF00BF5046FDF7ECFF89
:1022F00000BF00BF002051E700BF376A00BF00BF2A
:102300005046FDF7E1FF00BF00BF384646E700003A
:102310009416002053454D41C81600203017002068
:102320002DE9F04105460E4614462DB945F6C35039
:1023300020800020BDE8F0814EB1B6F5007F07D0C7
:10234000B6F5004F05D0B6F5024F04D102E000BF4C
:1023500000BF00BF04E045F6256020800020E9E7CB
:1023600000BF0A492868884204D045F6C45020803E
:102370000020DFE7FEF7E0FF804623464246314675
:10238000284601F003FC07463846D3E753454D4144
:1023900010B5044612480078E8B901F0DBFA11499B
:1023A000087008460078104908700E48007800EB65
:1023B00040000E4951F820000D49086008460068A9
:1023C0000C490860012006490870FEF711FA43F62F
:1023D0009920208002E045F68A60208010BD000030
:1023E00095160020AF160020AE160020147C0020A9
:1023F00034170020301700202DE9F04107464FF038
:10240000000800BF00BFFDF75BFF804600BF00BFB4
:1024100000203B4908803B4908603B4908603B4934
:1024200008603B4908603B49088100BF00BF404647
:10243000FDF74AFF00BF00BF00BF00BFFDF740FF30
:10244000804600BF00BF3448046800BF00BF40465C
:10245000FDF73AFF00BF00BF21E000BF00BFFDF75E
:102460002FFF804600BF00BF00206C34E063206077
:102470002063A061A082E0826062A062FEF75CFF40
:1024800020626C3C04F158060020B081D4F8B040C2
:1024900000BF00BF4046FDF717FF00BF00BF002C84
:1024A000DBD100BF00BFFDF70BFF804600BF00BFC0
:1024B0001A48056800BF00BF4046FDF705FF00BF92
:1024C00000BF12E000BF00BFFDF7FAFE804600BF6C
:1024D00000BF05F120060020B081AD6900BF00BF3C
:1024E0004046FDF7F1FE00BF00BF002DEAD102F02B
:1024F0003DF902F073FA00203880BDE8F081000059
:10250000D6160020E8160020FC1600202017002018
:10251000C0160020087C0020F0160020B416002011
:10252000F8B5044600266946324800F0DBFCBDF8E9
:10253000000018B1BDF800002080F8BD6A460021F7
:10254000022000F02FFDBDF8000018B1BDF800001A
:102550002080F2E700BF00BFFDF7B2FE064600BFD5
:1025600000BF00202449086000BF00BF3046FDF7CF
:10257000ABFE00BF00BF0025204800682049096865
:10258000884205D91D4800681D490968B0FBF1F56E
:1025900025B91A4800680A21B0FBF1F56A46002106
:1025A000284600F0FFFC6946124800F0B5F9BDF876
:1025B000000018B1BDF800002080BEE700BF00BFDA
:1025C000FDF77EFE064600BF00BF00200D490860F3
:1025D000094800680C49086001200C49087000BFD8
:1025E00000BF3046FDF770FE00BF00BF0020208016
:1025F00000BFA2E7B0800020D816002034F3000806
:102600001CF30008E8160020DC160020E416002069
:1026100010B50348006810B101480068804710BD3C
:10262000841600202DE9FF4F85B004469046DDE971
:102630001995159F139E002002905C480078002891
:1026400005DD47F24A10288009B0BDE8F08F1CB9BB
:1026500047F2AD102880F7E7B8F1000F03D147F239
:102660004F102880F0E71EB946F62F602880EBE770
:102670004F480068874203D246F630602880E3E77F
:102680001498B84203D346F631602880DCE71298EC
:10269000402803D346F273202880D5E712983F28BC
:1026A00006D14448844203D046F273202880CBE709
:1026B000204601F039FD0020288009F0010088B192
:1026C00009F0020070B1B3460020049007E000203A
:1026D000CBF800000BF1040B0498401C0490049804
:1026E000B842F4D3149806EB80000390CDE900794A
:1026F00032464046039B089900F0C6FA8346C4F868
:1027000028800898E06206982062129884F83700C2
:10271000C4F800B00398A060189860606662A76370
:10272000A4F83C904FF0000A08E0002104F170008A
:1027300040F82A100AF1010000F0FF0ABAF1000F78
:10274000F3D004F15800169900F03CFF204600F049
:1027500037F800BF00BFFDF7B3FD029000BF00BF18
:1027600094F8370001F016F9204601F08BF9204665
:1027700001F090FC10480088401C0F4908800F4869
:102780000078012807D000BF00BF0298FDF79CFD2C
:1027900000BF00BF58E700BF00BF0298FDF794FDDF
:1027A00000BF00BFFFF714FC00BF4DE794160020E8
:1027B00030F30008507B0020F4160020951600200E
:1027C00010B504460348006818B12046014909685D
:1027D000884710BD7416002070B504460D460026CB
:1027E00043480078002803DD47F24E10288070BD72
:1027F0004048844203D147F24C102880F7E77CB967
:1028000000BF00BFFDF75CFD064600BF00BF3A48B1
:10281000046800BF00BF3046FDF756FD00BF00BF93
:1028200000BF00BFFDF74CFD064600BF00BF94F897
:10283000360008282DD2DFE800F004090E10080A3F
:102840000F11204601F03CF92EE02DE000BF20469C
:1028500001F060FF28E000BF00BF00BF94F8340023
:10286000082810D2DFE800F004070508090A0B0663
:1028700000BF00BF08E000BF00BF00BF00BF204690
:1028800000F0AFFF00E000BF00BF204601F042FFB4
:102890000AE000BF00BF3046FDF716FD00BF00BFD5
:1028A00046F62D602880A2E700BF04F1580000F032
:1028B00067FE204600F024F8204601F003FC0F4894
:1028C0000088401E0D490880204601F02DFCFF20A5
:1028D00084F8360000BF00BF3046FDF7F5FC00BFAE
:1028E00000BF00202880FFF773FB00BF7FE70000D8
:1028F00094160020507B002030170020F416002092
:1029000010B504460348006818B12046014909681B
:10291000884710BD7816002070B504460D46002685
:1029200015480078002803DD47F25510288070BD57
:1029300000BF00BFFDF7C4FC064600BF00BF1CB1CE
:102940000E48006884420AD100BF00BF3046FDF740
:10295000BBFC00BF00BF47F257102880E7E700BF6D
:1029600000BF3046FDF7B0FC00BF00BF294620463F
:1029700001F034FC00BFDAE7941600203017002085
:1029800010B504460348006818B12046014909689B
:10299000884710BD7C1600202DE9F04780460E4682
:1029A00014461D464FF000096F480078002805DDE9
:1029B00046F2AE1028800020BDE8F0871EB1B6F5C3
:1029C000004F02D100E000BF04E045F625602880FA
:1029D0000020F1E700BF0CB10020206000BF00BF65
:1029E000FDF76EFC814600BF00BF60480068406C88
:1029F000A8B35E480068406C401E5C4909684864A2
:102A00005A480068476C1CB158480068006C206048
:102A1000FEF792FC55490968096C401A5349096848
:102A2000C1F8980051480068D0F89C004F490968E7
:102A3000D1F89810884207D24C480068D0F8980026
:102A40004A490968C1F89C0000BF00BF4846FDF72D
:102A50003BFC00BF00BF002028803846ACE7FFE702
:102A600006F4004058B100BF00BF4846FDF72CFCFB
:102A700000BF00BF46F2B010288000209CE73C4811
:102A8000007800280BDD00BF00BF4846FDF71CFCA6
:102A900000BF00BF46F66350288000208CE7434605
:102AA00007220021084600F0B9FD00BF00BF4846DC
:102AB000FDF70AFC00BF00BFFFF78AFA00BF00BFA6
:102AC000FDF7FEFB814600BF00BF2848006890F874
:102AD000350020B1012826D0032834D12CE0FCB1E8
:102AE00022480068006C2060FEF726FC1F49096838
:102AF000096C401A1D490968C1F898001B48006814
:102B0000D0F89C0019490968D1F89810884207D27A
:102B100016480068D0F8980014490968C1F89C006C
:102B20000020288013E01CB110480068006C206071
:102B300046F2A91028800AE00CB10020206047F27C
:102B4000D920288003E046F62E60288000BF00BF11
:102B500006480068476C00BF00BF4846FDF7B4FB5D
:102B600000BF00BF384627E794160020301700202A
:102B7000C81600202DE9F04106460D4614461DB149
:102B8000B5F5004F02D100E000BF05E045F6256035
:102B900020800020BDE8F08100BFFEF7CDFB80461D
:102BA000234642462946304601F0A4FB07463846F4
:102BB000F0E700002DE9F04705460E4617461C4693
:102BC0004FF0000A2E480078002804DD47F2591023
:102BD0002080BDE8F0871EB946F2D5202080F8E7B6
:102BE0001FB946F2D5202080F3E700BF00BFFDF7F4
:102BF00067FB824600BF00BF0DB922480568286800
:102C000068B900BF00BF5046FDF75EFB00BF00BFC4
:102C100000203060386047F252102080D9E795F8E4
:102C20003C0000F0010068B900BF00BF5046FDF74E
:102C30004BFB00BF00BF00203060386047F25410EB
:102C40002080C6E700BF00BF5046FDF73DFB00BF38
:102C500000BF4FF00008D5F8249003E009F1040903
:102C600008F10108D9F800000028F7D0C6F8008064
:102C7000A86BA0EB080038600020208000BFA8E708
:102C80009416002030170020F0B50446DDE9055603
:102C900002EB850020F007004FF0000C071F3846BC
:102CA000C7F800C04FF4805C071F3846C7F800C063
:102CB0004FF0150C071F3846C7F800C04FF0140C32
:102CC000071F3846C7F800C04FF0130C071F3846DF
:102CD000C7F800C04FF0120C071F3846C7F800C0F5
:102CE0004FF0110C071F3846C7F800C04FF0100C0A
:102CF000071F3846C7F800C04FF0090C071F3846B9
:102D0000C7F800C04FF0080C071F3846C7F800C0CE
:102D10004FF0070C071F3846C7F800C04FF0060CED
:102D2000071F3846C7F800C04FF0050C071F38468C
:102D3000C7F800C04FF0040C071F3846C7F800C0A2
:102D40004FF0030C071F3846C7F800C04FF0020CC5
:102D5000071F3846C7F800C04FF0010C071F384660
:102D6000C7F800C04FF0000C071F3846C7F800C076
:102D70004FF0807C071F3846C7F800C0071F384651
:102D80003C60DFF85CC1071F3846C7F800C04FF051
:102D9000123C071F3846C7F800C04FF0033C071F1E
:102DA0003846C7F800C04FF0023C071F3846C7F846
:102DB00000C0071F38463B60071F384639604FF098
:102DC000310C071F3846C7F800C04FF0300C071F02
:102DD0003846C7F800C04FF0290C071F3846C7F81F
:102DE00000C04FF0280C071F3846C7F800C04FF04E
:102DF000270C071F3846C7F800C04FF0260C071FE6
:102E00003846C7F800C04FF0250C071F3846C7F8F2
:102E100000C04FF0240C071F3846C7F800C04FF021
:102E2000230C071F3846C7F800C04FF0220C071FBD
:102E30003846C7F800C04FF0210C071F3846C7F8C6
:102E400000C04FF0200C071F3846C7F800C04FF0F5
:102E5000190C071F3846C7F800C04FF0180C071FA1
:102E60003846C7F800C04FF0170C071F3846C7F8A0
:102E700000C04FF0160C071F3846C7F800C04FF0CF
:102E8000113C071F3846C7F800C04FF0103C071F21
:102E90003846C7F800C04FF0093C071F3846C7F84E
:102EA00000C04FF0083C071F3846C7F800C04FF07D
:102EB000073C071F3846C7F800C04FF0063C071F05
:102EC0003846C7F800C04FF0053C071F3846C7F822
:102ED00000C04FF0043C071F3846C7F800C0F0BDE3
:102EE000DD42000870B505460C460A480078002807
:102EF00003DD47F25D10208070BD0748854203D195
:102F000047F25B102080F7E72146284601F0D4FA0B
:102F100000BFF1E794160020507B002010B51D483B
:102F2000006810B11B4800688047FEF705FA0446A8
:102F30001948006819490968884215D01648006880
:102F4000D0F88C00201A14490968C1F8880012488A
:102F50000068D0F8900010490968D1F8881008443A
:102F60000D490968C1F890000C480068C0F88C4011
:102F700009480068D0F8A80009490968884205D2C4
:102F80000748006804490968C1F8A80000200449FE
:102F9000086010BD8816002030170020341700206C
:102FA000C41600202DE9F04105460E4614460027C0
:102FB00027480078002804DD47F275202080BDE80E
:102FC000F08124480078002803DD46F66350208015
:102FD000F5E736B1022E05D0042E0AD0082E09D10D
:102FE00001E000BF00BF1DB947F27E202080E6E768
:102FF00004E003E045F625602080E0E700BF00BF65
:1030000000BFFDF75DF9074600BF00BF234632460B
:1030100029461148006801F01FFB208838B100BF25
:1030200000BF3846FDF750F900BF00BFC7E70A48A8
:10303000006800F045FD00BF00BF3846FDF744F9C9
:1030400000BF00BFFEF7C4FF0020208000BFB6E72E
:1030500094160020C8160020301700202DE9FF5FCD
:1030600005460E4617469846DDE90EA4002000905E
:103070005A480078002804DD47F275202080BDE81A
:10308000FF9F57480078002803DD46F663502080F4
:10309000F5E70AF00E0BBBF1000F09D0BBF1020FF0
:1030A00007D0BBF1040F10D0BBF1080F0ED101E027
:1030B00000BF00BFB8F1000F06D12FB926B91DB966
:1030C00047F27E202080DAE704E003E045F6256041
:1030D0002080D4E700BF2AF01E0008B1012000E0E4
:1030E000002003900398012803D145F62560208035
:1030F000C5E7CAF3001002900298C0B9B8F57A7F0C
:1031000003D347F27B202080B9E73B2F03DD47F252
:103110007A202080B3E73B2E03DD47F27920208020
:10312000ADE7632D12DD47F278202080A7E742F259
:103130000F70864203DD47F2792020809FE7B5F5C6
:103140007A7F03DB47F27820208098E72548D0F883
:1031500000904FF4FA70B0FBF9F0404400FB09F026
:103160004FF47A71B0FBF1F14FF461606843C6EB44
:10317000061200EB8200384400FB09100190019810
:1031800038B300BF00BFFDF79BF8009000BF00BF41
:1031900023465A4614480199006801F05DFA2088D8
:1031A00038B100BF00BF0098FDF78EF800BF00BF28
:1031B00065E70D48006800F083FC00BF00BF009881
:1031C000FDF782F800BF00BFFEF702FF002020805D
:1031D00002E047F27E20208000BF50E794160020D6
:1031E000C816002034F300083017002070B50446DC
:1031F000002600BF00BFFDF763F8064600BF00BF12
:103200000648056800BF00BF3046FDF75DF800BF07
:1032100000BF00202080284670BD0000F816002066
:1032200008B500F01FF86A4600210A48FFF7A2FC23
:1032300009480068401E084908600846006838B917
:103240000648006808606A4600210548FFF792FCBE
:1032500008BD0000CC7F00202C170020281700207C
:10326000B080002010B50348006810B10148006824
:10327000804710BD8C160020244A2549254A264A3D
:103280002649274A2748284A284A294A294A2A48B3
:103290002A482B4A2B482C4A2C482D4A2D482E4888
:1032A0002E482F482F4A304A304A3148314A324A54
:1032B0003248334833483448344835483548364A2C
:1032C000364A374A374A384838483948394A3A4AF4
:1032D0003A4A3B483B483C483C493D483D4A3E4AC7
:1032E0003E4A3F4A3F4A404A404A4148414A424A90
:1032F00042484348434A444A4448454A454A464866
:10330000464800BF00BF00BF7047000068F30008D8
:10331000CCF4000869F300086AF300086CF30008B5
:1033200070F3000874F3000871F300089CF30008C0
:103330009DF300089EF30008A0F30008A2F3000824
:10334000A4F30008A8F30008C8F30008CAF30008B3
:10335000CCF30008CEF30008D0F30008D2F3000845
:10336000D4F3000800F4000801F4000802F4000897
:1033700004F4000806F4000807F4000808F4000844
:103380000AF400080CF400080EF4000810F4000819
:1033900012F4000814F4000844F4000845F400088E
:1033A00046F4000847F4000848F400084AF400080E
:1033B0004CF4000874F4000875F4000876F4000872
:1033C00077F4000878F400087AF400087CF4000828
:1033D00080F4000881F4000882F4000883F40008F7
:1033E00084F4000885F4000886F4000887F40008D7
:1033F00088F400088AF400088BF400088CF40008B4
:103400008EF4000890F4000891F4000894F4000889
:10341000C4F40008C5F40008C6F40008C8F40008A5
:103420000021034A1160034A1180018070470000A7
:10343000981600209C160020002419E000BF00BF51
:10344000FCF73EFF044600BF00BF0A480068401C6E
:103450000849086008480068401C0749086000BF28
:1034600000BF2046FCF730FF00BF00BFFEF736FA72
:10347000E4E7000090160020D816002010B58AB0AE
:10348000044600200E4908600B2000210591CDE97B
:103490000704069108460B4909680B4A12680B4B52
:1034A0001B68CDE90132CDE903103F200023084A13
:1034B00008A100900C48FFF7B5F80AB010BD000055
:1034C00090160020DCF20008D8F20008D4F20008C0
:1034D0003934000875432F4F532D49494920496419
:1034E0006C65205461736B00507B00200021034AFF
:1034F0001160034A1180018070470000A01600206F
:10350000A416002070B501461A4D2D681DB945F26C
:103510001E750D8070BD184D2D881DB945F21D75A5
:103520000D80F7E7134D28682A681032124D2D8858
:103530006D1EACB2002308E00260002545600581E5
:10354000C560103010325D1CABB2A342F4DB002525
:10355000056045600581C560064D2D68074E3560E4
:10356000054D2D88B5800025F58035810D8000BF83
:10357000D0E7000014F300080CF30008087C0020DA
:1035800010B5014648894B89002B17DD0A680C4BA2
:103590001B6813600A4C4B6823602346DB884C8908
:1035A0001B1B074CE38023469B884C892344044C17
:1035B000A38000234B818B810B604B6010BD00000A
:1035C000087C0020018100224281828102604260E9
:1035D0007047000009A1C1610021416108490968E3
:1035E00011B90021816105E005490968816104493B
:1035F0000968486102490860704700002000000027
:10360000A81600200021034A1160034A118001809E
:1036100070470000A8160020AC1600202DE9F041EC
:1036200005460C4616461F461548006880F834606B
:1036300000201349096881F83500394610480068B0
:1036400000F012FD6CB104F10808EC60012229467B
:103650000B48006800F016F82946404600F08EF846
:1036600006E0002006490968C8870549096808631B
:1036700003480168204600F019F8BDE8F081000019
:103680003017002010B5C287016300230AE0002430
:103690004C600C600C614C610C83CC618860203103
:1036A0005C1CA3B29342F2DB10BD000030B548B100
:1036B0004568C1F8B45000F10804226893681D6A97
:1036C000C56113E091F83450022D02D0072D08D1C6
:1036D00003E007A5C1F8B45007E007A5C1F8B4504E
:1036E00003E008A5C1F8B45000BF00BF30BD000022
:1036F0005461736B205100005461736B2053656DEE
:10370000000000002000000030B507A5C1F8B4504B
:1037100000F1080422681AB193681D6AC56101E0CE
:1037200001A5C56130BD0000200000002DE9F04377
:1037300004460F4684F83770256BB4F83E8013E0DA
:10374000D5F80C9009F108063089012807D92946D7
:10375000304600F05EF82946304600F00FF820357C
:10376000A8F101001FFA80F8B8F1000FE8D1BDE818
:10377000F08300210160416001817047F0B58E68DF
:1037800096F8375007893FB90127078100274F6016
:103790000F600160416023E007897F1C0781026898
:1037A00006E0946894F83770AF4200DD02E052689A
:1037B000002AF6D100BF32B900274F6043680B6082
:1037C000596041600CE017682FB9116000270F6045
:1037D0004A60016004E013680B604A605960116040
:1037E000F0BD2DE9F0410446256BE68F0AE0D5F8DF
:1037F0000C8008F108072946384600F00AF8203501
:10380000701E86B2002EF2DC0020E0872063BDE847
:10381000F08110B50489012C03D1002404604460B8
:1038200011E00C6824B94A680024146002600AE0C0
:103830004C6824B90B6800245C60436003E00B68AB
:103840004A685A6013600489641E048100244C6035
:103850000C6010BD2DE9F84306460C461746984605
:10386000089D94F8360008285BD2DFE800F00405D4
:1038700008090607323300BF00BF00BF52E000BF97
:1038800094F83400032807D143463A46214630468F
:10389000009500F04AF803E02765A4F854802564F9
:1038A00036B12046FFF79DFF21463046FFF72CFF3B
:1038B00094F83600032802D1204600F02BFF204662
:1038C00000F0AAF800203434A070607004F83409C5
:1038D00028E000BF94F83400032807D143463A4655
:1038E00021463046009500F020F803E02765A4F853
:1038F0005480256436B12046FFF773FF21463046D9
:10390000FFF702FF94F83600072802D1204600F0A6
:1039100001FF04203434A0700020607004F83409E2
:1039200000E000BF00BFBDE8F883F0B50446059E87
:10393000086BCD8F0AE0C768A74204D104614261D9
:103940000383C66104E020306F1EBDB2002DF2DC9F
:1039500000BFF0BD70B50025074C03E005F1200065
:10396000C5B2241D20680028F8D02068FCF7B3FCFD
:103970002844C5B2284670BD6C160020002004E023
:103980000021034A42F82010401C0228F8D3704757
:103990006C16002030B5420900F01F030121C3F16D
:1039A0001F04A140034C54F822400C43014D45F83C
:1039B000224030BD6C16002030B5420900F01F03D4
:1039C0000121C3F11F04A140034C54F822408C4351
:1039D000014D45F8224030BD6C1600200021034AFD
:1039E0001160034A1180018070470000B416002066
:1039F000B816002000210AE001EB4102054B03EB61
:103A0000820000220281026042604A1CD1B2402939
:103A1000F2D37047147C002010B5044694F83700A8
:103A2000FFF7B8FF94F8370005490978884203D1B9
:103A3000204600F027F802E0204600F003F810BD11
:103A4000AE16002010B590F8373003EB43030C4C52
:103A500004EB83010B893BB901230B810023C36075
:103A600003610860486009E00B895B1C0B810B68EF
:103A7000C360002303610A681061086010BD000084
:103A8000147C002010B590F8373003EB43030B4C47
:103A900004EB83010B893BB901230B810023C36035
:103AA00003610860486008E00B895B1C0B81002300
:103AB000C3604A680261D060486010BD147C002079
:103AC0002DE9F041054695F8370000EB400012491A
:103AD00001EB80042F69EE6887B946B90020208188
:103AE0002060606095F83700FFF766FF0EE02089E0
:103AF000401E208100203061266007E02089401EA2
:103B00002081FE600EB9676000E037610020286107
:103B1000E860BDE8F0810000147C002010B5044886
:103B20000078012803D1FDF707FC0249086010BDA9
:103B3000C8160020BC16002010B50A48007880B9CD
:103B4000FDF7FAFB08490968441A08480068A042D2
:103B500001D20648046006480068A04201D2044829
:103B6000046010BDC8160020BC160020C01600203E
:103B7000C41600200021034A1160034A118001800D
:103B800070470000CC160020D01600202DE9FF5F02
:103B90000446884691461D460020019000BF00BFA4
:103BA000FCF78EFB019000BF00BF04F108073889C5
:103BB00000284FD10420012804D0022814D0042862
:103BC00034D123E0206AFF280DD100BF00BF019847
:103BD000FCF77AFB00BF00BF46F6C55028800020E6
:103BE00004B0BDE8F09F22E04FF6FF71206A8842E2
:103BF0000BD100BF00BF0198FCF766FB00BF00BF00
:103C000046F6C55028800020EAE710E0206A401CF4
:103C100058B900BF00BF0198FCF756FB00BF00BFBA
:103C200046F6C55028800020DAE700E000BF00BF5C
:103C3000206A401C2062D4F820A0C4F8249000BF61
:103C400000BF0198FCF740FB00BF00BF00202880A8
:103C50005046C5E708F4007008B13E8900E001262F
:103C6000D7F800B011E0DBF808000290DBF80400A0
:103C7000039000231A46CDF8009020460299FFF7E2
:103C8000E9FDDDF80CB0701E86B2002EEBD1D4F841
:103C900020A000BF00BF0198FCF716FB00BF00BFCB
:103CA00008F4004008B9FEF793F900202880504638
:103CB00096E7000086B00020009006E0A849096859
:103CC000480001AA0021FFF76DF9A64800780128F5
:103CD000F4D101A8FEF790FB0027A3480068A04993
:103CE0000968884205D9A04800689D490968B0FB69
:103CF000F1F727B99C4800680A21B0FBF1F72EE1E3
:103D0000FDF71AFB804600BF00BFFCF7D9FA009010
:103D100000BF00BF9548006895490860002093499E
:103D2000086000BF00BF0098FCF7CEFA00BF00BFDC
:103D3000904800688E490968884248D98D480068D3
:103D40008D49884205D242F2107003900120029002
:103D500023E0884800688949884205D24FF47A7088
:103D600003900A20029018E0824800688449884243
:103D700003D26420039002900FE07E4800688149DE
:103D8000884205D20A2003904FF47A70029004E032
:103D90000120039042F21070029076480168029868
:103DA000B1FBF0FA7249039809684843B0FBFAF096
:103DB00042F21071081A7449088074480088098812
:103DC000884208DA704800887049088003E042F2AF
:103DD00010706D490880FEF71BFC002500BF00BF76
:103DE000FCF76EFA009000BF00BF6948046800BF8E
:103DF00000BF0098FCF768FA00BF00BF26E000BFD4
:103E000000BFFCF75DFA009000BF00BF54F8900FB0
:103E10006060002044F8900900BF00BF0098FCF7E4
:103E200053FA00BF00BFD4F89400054400BF00BFA0
:103E3000FCF746FA009000BF00BFD4F8B04000BFC6
:103E400000BF0098FCF740FA00BF00BF002CD6D19D
:103E500045B34948854205D242F2107005904FF0B3
:103E6000010B1BE04548854205D24FF47A7005905E
:103E70004FF00A0B12E04248854203D264200590BD
:103E800083460BE03F48854204D20A2005904FF458
:103E90007A7B03E00120059042F2107BB5FBFBF03A
:103EA000049003E0002005900120049000BF00BFB3
:103EB000FCF706FA009000BF00BF3548046800BF59
:103EC00000BF0098FCF700FA00BF00BF2BE0D4F859
:103ED0009400059948430499B0FBF1F086B242F290
:103EE0001070864200D90646A4F88060B4F88200BB
:103EF000B04201DAA4F8826001AB04F1A002111D06
:103F00002046FEF757FE00BF00BFFCF7D9F900902E
:103F100000BF00BFD4F8B04000BF00BF0098FCF75E
:103F2000D3F900BF00BF002CD1D11A480078012876
:103F300005D100201749087001A8FEF75DFAFDF7CA
:103F4000FBF9A0EB080914480068484502D2124862
:103F5000C0F8009001AA00213846FFF723F8CFE609
:103F60001CF30008E416002034F30008D8160020E3
:103F7000E0160020DC160020801A060000093D0033
:103F8000005A62020084D717D4160020D6160020EB
:103F9000F0160020D2160020E816002010B58AB0D6
:103FA000044600201F4908601F4908601F49086037
:103FB0001F4908701F4908701F48006820B946F65D
:103FC0002B6020800AB010BD1C4800681C4909689D
:103FD000884203D246F62C602080F3E71948007827
:103FE0003F2803D346F62A602080EBE70320002118
:103FF0000591CDE907040691084610490968124A5F
:1040000012680D4B1B68CDE90132CDE903100D4854
:10401000007800230D4A0EA100901248FEF702FB23
:1040200000BFCFE7D8160020E0160020DC160020E5
:10403000E4160020D216002020F3000828F3000820
:1040400030F3000818F3000824F30008B53C00081A
:1040500075432F4F532D494949205374617420549F
:1040600061736B00147F002070B504460D4645B1A6
:104070002A462146064800F0ABFA032084F83600B1
:1040800002E0022084F836002046FFF719FD70BDDB
:10409000081700200021C0F8AC100949096819B9B7
:1040A0000021C0F8B01007E005490968C0F8B01059
:1040B00003490968C1F8AC00014908607047000075
:1040C000F0160020D0F8AC20D0F8B0104AB90D4B53
:1040D000196011B10023C1F8AC300023C0F8B03032
:1040E0000FE029B90023C2F8B030C0F8AC3008E0C6
:1040F000C2F8B010C1F8AC200023C0F8B030C0F84E
:10410000AC307047F01600200021044A1160044AC8
:104110001180044A1160018070470000F0160020F1
:10412000F4160020EC16002070B504460020206034
:10413000A0606060E06020616061A061E06124A037
:10414000206200206062A062E06220642065A4F822
:104150005400002104F15800FFF734FA0020A06653
:10416000E0666067A4F87C00A067002506E00021F7
:1041700004F1700040F82510681CC5B2002DF6D07F
:104180000020343420616066A066606084F84A00D4
:104190002067E06620816061A061A4F84C00A4F86B
:1041A0004E0020656065FDF7C7F80646A66500204D
:1041B000E065606720706070A0704020E0700020B3
:1041C000A067E06704A0C4F88000343C70BD000024
:1041D0003F5461736B0000002000000070B504467E
:1041E0000D46002600BF00BFFCF76AF8064600BF78
:1041F00000BF0020288094F8360008285ED2DFE84F
:1042000000F0040506071227394B00BF00BF00BFAE
:1042100000BF00BF3046FCF757F800BF00BF47F2B1
:104220005310288055E014F87E0F401E207014F8BB
:104230007E0928B9002084F836002046FFF7ECFB01
:1042400000BF00BF3046FCF73FF800BF00BF40E0B2
:1042500014F87E0F401E207014F87E0910B901205A
:1042600084F8360000BF00BF3046FCF72DF800BFD1
:1042700000BF2EE014F87E0F401E207014F87E0957
:1042800010B9022084F8360000BF00BF3046FCF7AA
:104290001BF800BF00BF1CE014F87E0F401E20700A
:1042A00014F87E0910B9032084F8360000BF00BF5F
:1042B0003046FCF709F800BF00BF0AE000BF00BFAE
:1042C0003046FCF701F800BF00BF46F62D6028809D
:1042D00070BD00BFFDF77CFE00BFF9E708B50448DC
:1042E0000068FEF74DFB69460020FEF775FA08BD31
:1042F000301700202DE9F8430446884617461D462E
:104300004FF0000900BF00BFFBF7DAFF814600BF96
:1043100000BF0CB96748046827640020288094F81F
:104320003600082876D2DFE800F004055051060771
:10433000525300BF00BF00BF0420012804D0022850
:1043400013D0042833D122E0606CFF280CD100BFC9
:1043500000BF4846FBF7B8FF00BF00BF46F6C55098
:1043600028800020BDE8F88322E04FF6FF71606CE2
:1043700088420BD100BF00BF4846FBF7A5FF00BF36
:1043800000BF46F6C55028800020EBE710E0606CC7
:10439000401C58B900BF00BF4846FBF795FF00BF5F
:1043A00000BF46F6C55028800020DBE700E000BFD4
:1043B00000BF606C401C6064666C00BF00BF484674
:1043C000FBF782FF00BF00BF71E000BF00BF00BF6E
:1043D00094F83400072815D100231A4621461846C0
:1043E0000097FFF737FA666C00BF00BF4846FBF73F
:1043F0006BFF00BF00BF08F4004000284AD1FDF762
:10440000E7FD47E00420012805D0022813D0042846
:1044100033D122E03FE0606CFF280BD100BF00BF2A
:104420004846FBF751FF00BF00BF46F6C550288045
:10443000002097E722E04FF6FF71606C88420BD1B5
:1044400000BF00BF4846FBF73FFF00BF00BF46F676
:10445000C5502880002085E710E0606C401C58B9EA
:1044600000BF00BF4846FBF72FFF00BF00BF46F666
:10447000C5502880002075E700E000BF00BF606CD9
:10448000401C6064666C00BF00BF4846FBF71CFF21
:1044900000BF00BF0BE000BF00BF4846FBF714FFA2
:1044A00000BF00BF46F62D602880002600BF00BF79
:1044B000304657E73017002070B504460D460026F9
:1044C00000BF00BFFBF7FCFE064600BF00BF0CB9F3
:1044D0003D4804683C48006884420ED13B4800785F
:1044E00000280ADD00BF00BF3046FBF7EDFE00BF2D
:1044F00000BF46F66350288070BD0020288094F8E5
:104500003600082850D2DFE800F0041523313F4080
:104510004142042084F83600012084F87E002046C1
:10452000FFF7CEFA00BF00BF3046FBF7CDFE00BF5D
:1045300000BF44E0052084F83600012084F87E00A6
:1045400000BF00BF3046FBF7BFFE00BF00BF36E034
:10455000062084F83600012084F87E0000BF00BFEA
:104560003046FBF7B1FE00BF00BF28E0072084F80B
:104570003600012084F87E0000BF00BF3046FBF704
:10458000A3FE00BF00BF1AE000BF00BF00BF94F849
:104590007E00401C84F87E0000BF00BF3046FBF761
:1045A00093FE00BF00BF0AE000BF00BF3046FBF72C
:1045B0008BFE00BF00BF46F62D6028809CE700BF41
:1045C000FDF706FD00BF97E730170020C816002052
:1045D00070B51546066846B98D6400264E618E6139
:1045E000C86101600126868033E0046802682B46BA
:1045F00024E0966C9E421DD396696EB98B640026AA
:104600008E614A61C861966CF61A96649161016088
:104610008688761C86800CE094698B648C614A6184
:10462000C861966CF61A9664916161618688761C01
:10463000868070BD966C9B1B14465269002AD8D1A7
:104640008B648C6100264E61C86161618688761C2E
:10465000868000BFEDE700002DE9F04104460D46DD
:1046600090461F46B8F1040F0ED1284800682E1A54
:1046700016F5803F01D8002E3CD10020A06447F2FF
:104680007E203880BDE8F081B8F1080F29D11F499C
:10469000E06C0968081AA84205D92E461B48006834
:1046A0002844E06426E01949E06C0968081A2E1ACB
:1046B00016F5803F00D886B91449E06C0968081ADD
:1046C000B0FBF5F005FB0050E16C0844E06400200D
:1046D000A06447F27E203880D4E7E06C2844E06490
:1046E00008E00DB12E4605E00020A06447F27E20D0
:1046F0003880C7E7012084F8360032462146044856
:10470000FFF766FF0020388000BFBBE7F8160020E7
:104710000017002030B5C26983694169ABB929B976
:104720000024146094808464C4611EE000248C61C1
:104730008C6C856C2C448C6411609488641E94800D
:10474000002444618464C4610FE0596121B18B612C
:104750008C6C856C2C448C64002484619488641E69
:104760009480002444618464C46130BD70470000BB
:104770001CB500272CE001AB6A4600210846FEF775
:104780000BF9BDF8040018BB1248007801281FD1AE
:1047900000BF00BFFBF794FD074600BF00BF0E48F7
:1047A0000068401C0C49086000BF00BF3846FBF79A
:1047B0008BFD00BF00BF06F089F9064606F0D2F96E
:1047C0000546741905480068A04201D203480460F8
:1047D000D1E7000095160020F8160020FC160020F6
:1047E00010B58AB0044600202049086020490860BE
:1047F000204908601E498880C8801E498880C8807A
:104800001D48006820B947F2122020800AB010BD70
:104810001A4800681A490968884203D247F21320EF
:104820002080F3E7174800783F2803D347F2112090
:104830002080EBE70B2000210591CDE907040691CC
:1048400008460E490A68104909680B4B1B68CDE9F8
:104850000131CDE903200B48007800230B4A0CA15D
:1048600000901048FDF7DEFE00BFCFE7F8160020ED
:1048700000170020081700203CF3000844F300084C
:1048800030F3000838F3000840F3000871470008CF
:1048900075432F4F532D494949205469636B205468
:1048A00061736B00CC7F002010B58AB004460020F5
:1048B0002F4908602F4908602F4908802F48006859
:1048C00040B12F4800682D490968B0FBF1F02D492F
:1048D000086006E02A4800680A21B0FBF1F0294987
:1048E00008602848006828490860002027490860B7
:1048F00027490860224627A12A48FDF743F9208866
:1049000008B10AB010BD2848006818B947F247300E
:104910002080F6E72548006825490968884203D2C7
:1049200047F248302080ECE7224800783F2803D344
:1049300047F246302080E4E70B20002105910A462B
:10494000CDE907040691194800681B490968164B10
:104950001B68CDE90131CDE9030216480078002338
:10496000164A17A100901C48FDF75CFE00BFC8E77F
:1049700010170020181700201417002050F300080B
:1049800034F30008281700202C17002024170020DB
:10499000201700204F5320546D72204D7574657898
:1049A000000000008480002054F300085CF300083D
:1049B00030F300084CF3000858F30008E149000800
:1049C00075432F4F532D4949492054696D65722015
:1049D0005461736B00000000B0800020704700003D
:1049E0001CB53FE001AB6A4600210846FDF7D4FF45
:1049F00006F056F8FCF7A0FC06461B480068401C71
:104A000019490860194804681FE001A8FDF730FB48
:104A1000D4F81080A069401EA061A06980B9A08C64
:104A2000022802D1206AA06105E0204600F022F8A9
:104A3000032084F82600A56815B12046E168A84740
:104A4000444601A8FDF74EFB00BF002CDDD1FCF76A
:104A500073FC871B06F030F805480068B84201D2A5
:104A600003480760BEE70000241700201817002045
:104A70002017002010B50E4B1B68834206D1016938
:104A80000B4B196039B100234B6104E041690269A5
:104A90000A6102B15161012380F8263000230361CD
:104AA0004361044B1B885B1E024C238010BD000039
:104AB000181700201417002029B1064A1268024373
:104AC000044B1A6004E0034A12688243014B1A60E7
:104AD000704700003038024029B1064A126802438C
:104AE000044B1A6004E0034A12688243014B1A60C7
:104AF000704700003838024029B1064A1268024364
:104B0000044B1A6004E0034A12688243014B1A60A6
:104B1000704700004038024029B1064A126802433B
:104B2000044B1A6004E0034A12688243014B1A6086
:104B3000704700002038024029B1064A126802433B
:104B4000044B1A6004E0034A12688243014B1A6066
:104B5000704700004438024029B1064A12680243F7
:104B6000044B1A6004E0034A12688243014B1A6046
:104B70007047000024380240F0B5002100220024D4
:104B8000022500260223324F3F6807F00C0121B1B5
:104B9000042905D0082937D105E02E4F076036E0FB
:104BA0002D4F076033E02A4F3F1F3F68C7F3805601
:104BB000274F3F1F3F6807F03F036EB1264FB7FBFB
:104BC000F3F7DFF88CC0ACF1040CDCF800C0CCF3D8
:104BD000881C07FB0CF40CE01E4FB7FBF3F7DFF863
:104BE00070C0ACF1040CDCF800C0CCF3881C07FBEF
:104BF0000CF4174F3F1F3F68C7F301477F1C7D0030
:104C0000B4FBF5F7076002E0124F076000BF00BF7A
:104C10000F4F3F6807F0F0010909104F7A5C0768F1
:104C2000D74047600A4F3F6807F4E051890A0B4FAD
:104C30007A5C4768D7408760054F3F6807F460415A
:104C4000490B064F7A5C4768D740C760F0BD00004B
:104C5000083802400024F40000127A0048160020B0
:104C600010B52DED048B00BF00BFFBF729FB0446F8
:104C700000BF00BFFCF702FF00BF00BF2046FBF7EC
:104C800023FB00BF00BF3C484068B0F57A7F17D2D5
:104C900039484068401C38494860384800680AF084
:104CA0009DFA41EC190B9FED360B53EC102B09F0DC
:104CB000D5FD41EC180B09F09FFD3049086033E049
:104CC0001C222D49083101F11C00FBF726FB1C2199
:104CD00029480830FBF798FB0020274948602A48FC
:104CE00000682A4908602A4800682A4908602A485A
:104CF00000682A4908602A4800682A4908602A484A
:104D000000682A4908602A4800682A49086000208B
:104D10001D4908602049086021490860224908604F
:104D20001B490860224908602348007803280FD0F7
:104D300021480078082803D01F48007809280ED1A0
:104D40001E4890ED000AB5EEC00AF1EE10FA06D04A
:104D50001948D0F89802401C1749C1F89802184821
:104D60000068401C16490860FEF75AFAFCF79CFEE2
:104D7000BDEC048B10BD0000505500204400002005
:104D8000FCA9F1D24D62503F140000202C000020FD
:104D90001C000020340000202000002038000020EB
:104DA000240000203C0000202800002040000020BB
:104DB000180000203000002018620020840100202C
:104DC0007801002010B51548006840F470001349C0
:104DD00008601348006840F0010011490860002095
:104DE0000F49083108600E4800680E4908400C4918
:104DF00008600D48091D0860081F006820F4802025
:104E0000091F0860002006490C31086005F05CFFAE
:104E10004FF0006001498039086010BD88ED00E066
:104E200000380240FFFFF6FE1030002421B1028856
:104E300042F08002028004E002884FF67F731A403D
:104E40000280704721B1028842F00102028004E032
:104E500002884FF6FE731A400280704770B5002436
:104E600000220023058C4FF6FE7635400584028C27
:104E70008388048B4FF68F752C40B51E2C400D880F
:104E80002C43751E2A408D892A434D882A43104D94
:104E9000A84202D00F4DA84213D14FF6F7752A4011
:104EA000CD892A434FF6FB752A408D882A434FF659
:104EB000FF652B404FF6FF552B400D8A2B434D8A43
:104EC0002B43838004838D684563028470BD00009A
:104ED00000000140000401400A460021018B4FF60A
:104EE000F7731940114301837047000070B5002427
:104EF00000220023058C4FF6FF6635400584028CA6
:104F00008388848B4FF68F752C404FF6FC752C40B0
:104F10000D882C434FF6FF552A408D894FF6FF76BA
:104F200006EA05252A434D8806EA05252A43154D3C
:104F3000A84202D0144DA8421DD14FF2FF752A405D
:104F4000CD894FF6FF7606EA05252A434FF6FF3551
:104F50002A408D8806EA05252A434EF6FF752B4028
:104F60004DF6FF752B400D8A06EA05152B434D8A39
:104F700006EA05152B43838084838D68C56302840C
:104F800070BD000000000140000401400A460021FD
:104F9000818B4FF6F77319401143818370470000EE
:104FA00070B5002200230024058C4EF6FF763540B4
:104FB0000584038C8488828B48F6FF752A404FF65F
:104FC000FF452A400D884FF6FF7606EA05252A435D
:104FD0004DF6FF752B408D8906EA05352B434D882C
:104FE00006EA05352B430A4DA84202D0094DA842D6
:104FF00008D14BF6FF752C400D8A4FF6FF7606EA76
:1050000085152C43848082838D680564038470BD7C
:1050100000000140000401400A460021818B4FF24C
:10502000FF7319404FF6FF7303EA0223194381838C
:105030007047C1637047000000220288184B9842F5
:105040000ED0184B98420BD0B0F1804F08D0164BC1
:10505000984205D0154B984202D0154B984204D186
:105060004FF68F731A404B881A43124B984207D061
:10507000114B984204D04FF6FF431A400B891A4354
:1050800002804B68C3620B880385054B984202D0AF
:10509000044B984201D18B7A0386012383827047A7
:1050A00000000140000401400004004000080040EE
:1050B000000C0040001000400014004010B500BF7C
:1050C00000BFFBF7FDF8044600BF00BFFCF7D6FCAD
:1050D00000BF00BF2046FBF7F7F800BF00BF40F25B
:1050E00025510E4800F04EF928B140F225510B48E9
:1050F00000F0ACF80EE040F22441084800F042F91C
:1051000040B10648008805488088054801F056FEF1
:1051100001F0B6F8FCF7C8FC10BD0000001001401B
:10512000D815002010B500BF00BFFBF7C9F8044632
:1051300000BF00BFFCF7A2FC00BF00BF2046FBF78A
:10514000C3F800BF00BF40F225510E4800F01AF925
:1051500028B140F225510B4800F078F80FE040F2FA
:105160002441084800F00EF948B106480088054877
:10517000001D0088044801F021FE01F085FAFCF7CB
:1051800093FC10BD004400402C16002010B500BF59
:1051900000BFFBF795F8044600BF00BFFCF76EFCAC
:1051A00000BF00BF2046FBF78FF800BF00BF40F2F2
:1051B0002551114800F0E6F828B140F225510E487B
:1051C00000F044F815E040F224410B4800F0DAF812
:1051D00078B1094800880848001D0088074801F098
:1051E000EDFD01F0F1FA0648808A401C81B20448C6
:1051F0008182FCF759FC10BD00480040F4150020E6
:105200005055002010B500BF00BFFBF759F8044609
:1052100000BF00BFFCF732FC00BF00BF2046FBF719
:1052200053F800BF00BF40F22551074800F0AAF82C
:1052300030B140F22551044800F008F801F0F8FBC5
:10524000FCF732FC10BD00000014014010B5002234
:10525000002340F66A14A14200D100BF0A120124C3
:105260009440A3B2DC43048010BD21B1828942F492
:105270000052828104E082894DF6FF731A408281D8
:1052800070471AB1838A0B43838202E0838A8B437F
:105290008382704710B504463248844208D1012108
:1052A0001020FFF759FC00211020FFF755FC57E0B4
:1052B0002D48844209D101214804FFF72DFC00212B
:1052C0004FF40030FFF728FC4AE02848844209D117
:1052D00001218804FFF720FC00214FF48020FFF714
:1052E0001BFC3DE02248844209D10121C804FFF79C
:1052F00013FC00214FF40020FFF70EFC30E01D48A6
:10530000844209D101210805FFF706FC00214FF472
:105310008010FFF701FC23E01748844208D10121E7
:105320002020FFF719FC00212020FFF715FC17E0D3
:105330001248844209D101218807FFF7EDFB0021C3
:105340004FF08040FFF7E8FB0AE00D48844207D1A8
:1053500001214005FFF7E0FB00216005FFF7DCFBC2
:1053600010BD000000100140004400400048004013
:10537000004C004000500040001401400078004004
:10538000007C004070B50246002400230025002068
:1053900040F66A16B14200D100BFC1F3421501F0D8
:1053A0001F03012606FA03F3012D02D1968933402B
:1053B00006E0022D02D1168A334001E0968A33407E
:1053C0000C12012606FA04F41688344013B10CB10D
:1053D000012000E0002070BDF0B503460024002647
:1053E0000025002040F66A17B94200D100BF1846D8
:1053F000C1F3421401F01F06012707FA06F5012C3C
:1054000001D10C3004E0022C01D1103000E0143046
:105410001AB107682F43076002E00768AF430760CF
:10542000F0BD00002DE9FF4705460E460024A146C9
:1054300000BFA046B08900B100BF2C8A24F44054BC
:10544000F08804432C82AC8941F20C608443B0881C
:1054500031890843718908430443AC81AC8A24F440
:105460004074B0890443AC826846FFF785FB20484E
:10547000854202D01F48854202D1DDF80C9001E040
:10548000DDF80890A88900F4004040B109EBC9009C
:1054900000EB091031684900B0FBF1F707E009EBB8
:1054A000C90000EB091031688900B0FBF1F76420F6
:1054B000B7FBF0F004012009642101FB1078A889F2
:1054C00000F4004040B1322000EBC800B0FBF1F026
:1054D00000F00700044308E0322000EB08106421CC
:1054E000B0FBF1F000F00F0004432C81BDE8FF8712
:1054F000001001400014014001468888C0F30800F4
:105500007047000000B52DED028B83B0FE48007897
:10551000052802D00420FC490870FC4800780928BE
:105520007DD2DFE800F0054DFDFCFBFAF9F8F7004D
:10553000F7480068E8B39FEDF70AF74880ED030AE3
:10554000F648D0ED970AF44890ED031A70EEC10AC0
:10555000B0EE600A07F0CBFCF7EE000AB4EEE00A0A
:10556000F1EE10FA2BD2ED48D0EDD40AEA4890EDD6
:10557000031A70EEC10AB0EE600A07F0B8FCF7EE4D
:10558000000AB4EEE00AF1EE10FA18D2BAEE040AFC
:10559000E14880ED030AE249E048C0F8C812E14959
:1055A000C0F8BC139FEDE00A80EDFC0A9FEDDF0A16
:1055B00000E004E080EDFD0A0020D54908604AE3E0
:1055C0000120DB49C1F82802DA4890ED000AD248F0
:1055D00080ED020AD84890ED000ACF4880ED030A1A
:1055E000D6480068D64909684843C0BB9FEDCF0A3A
:1055F000C94880ED000ACE48D0ED1D0AC64890ED9E
:10560000001A70EEC10AB0EE600A07F070FCF1EE0D
:10561000040AB4EEE00AF1EE10FA07D200E019E352
:105620009FEDC80ABC4880ED010A1FE0C34800682E
:10563000B0B9C5480078401E00EE100AF8EEC00A66
:10564000C24890ED001AC24890ED000A00EE810AAF
:10565000DFEDC00A30EE200AAF4880ED010A05E018
:10566000BD4890ED000AAC4880ED010AB3480068DF
:10567000B3490968484300287ED09FEDB80AB8486E
:1056800080ED000A9FEDB70AB74880ED000AAB48ED
:105690000068AB490968484380B1A54890ED5A0AB3
:1056A000DFEDB20AB4EEE00AF1EE10FA06D2B0482D
:1056B000007818B90220AE49087015E09F480068CC
:1056C0009F490968484378B1994890ED5A0ADFED3F
:1056D000A70AB4EEE00AF1EE10FA05DDA44800785E
:1056E00010B90120A2490870A148007802283CD1D5
:1056F0009FEDA00A884880ED010A8D48D0ED5A0A36
:10570000854890ED011A70EEC10AB0EE600A07F00C
:10571000EEFB06E0AAE171E2EEE1C7E143E1E1E080
:1057200082E0F1EE040AB4EEE00AF1EE10FA23D2C0
:10573000914890ED000A784880ED000A7C48D0ED51
:105740001D0A754890ED001A70EEC10AB0EE600AAD
:1057500007F0CDFBF1EE040AB4EEE00AF1EE10FA28
:105760000AD208206949087006E0814800780128BB
:1057700002D108206549087063480078052821D1C6
:105780006B4890ED5A0A7148D0ED000AB4EEE00A79
:10579000F1EE10FA16DD79480068022812D15A4954
:1057A000087000207549086067484078401C6649C9
:1057B00048700846407803281FDD01204870604982
:1057C00008601AE06D480068012816D14E4800783C
:1057D000052812D102204C49087000206749086052
:1057E00059480078401C584908700846007803283A
:1057F00003DD01200870514908604748D0ED010AD7
:105800004B4890ED5A1A70EEC10AB0EE600A07F0EC
:105810006EFBF1EE040AB4EEE00AF1EE10FA02D2E9
:1058200001203949087016E200204149C1F82802D8
:10583000404890ED000A384880ED020A4F48006861
:1058400001281CD1084690ED5A0ADFED420AB4EE59
:10585000E00AF1EE10FA0BDD494890ED000A2E48FF
:1058600080ED000A464890ED000A464880ED000AA7
:10587000454890ED000A284880ED010A0CE03F48B9
:105880000068022808D19FED290A234880ED000A0C
:10589000B9EE040A80ED010A1F48D0ED010A244840
:1058A00090ED5A1A70EEC10AB0EE600A07F01FFBC5
:1058B000F1EE040AB4EEE00AF1EE10FA11D22F482C
:1058C0000068012803D103201049087009E02B4823
:1058D0000068022805D101200C49087005200A49FA
:1058E0000870B8E1294890ED000A0B4880ED010AE4
:1058F000D0ED010A0E4890ED5A1A70EEC10AB0EED2
:10590000600A07F0F4FA43E0A1010020B60100208C
:10591000F8010020004003C5C4590020005C0020AD
:105920000DE69FFFC788A7FF00C0DAC40000000093
:10593000D4590020E4010020DC01002004020020F2
:10594000000200200000C843B4010020B80100207C
:10595000CC01002000004843EC0100200000FA4484
:10596000600100200000C8425C01002000002F44BC
:105970002002002000808944D0010020FC0100208A
:105980000802002010020020C4010020BC010020F9
:10599000F1EE040AB4EEE00AF1EE10FA02D20420AD
:1059A000B149087057E1B14890ED000AB04880ED68
:1059B000000AD0ED000AAF4890ED1D1A70EEC10A42
:1059C000B0EE600A07F093FAF1EE040AB4EEE00AD2
:1059D000F1EE10FA49D2A8480078401E00EE100AF5
:1059E000F8EEC00AA54890ED001AA54890ED000A0F
:1059F00000EE810A9E4880ED010AA248006860B16D
:105A00009F4890ED000A9D48D0ED000AB0EE001AC4
:105A100001EE200A964880ED010A9548D0ED010A72
:105A2000944890ED5A1A70EEC10AB0EE600A07F081
:105A30005EFAF1EE040AB4EEE00AF1EE10FA14D2C6
:105A400001208C49C1F8280202A810214FF47A7372
:105A50000022CDE9001011461046FDF7FFFA05209F
:105A600089490870012080490870F4E07F4890ED72
:105A7000000A7F4880ED000A7E48D0ED1D0A7C4870
:105A800090ED001A70EEC10AB0EE600A07F02FFA2E
:105A9000F1EE040AB4EEE00AF1EE10FA05D27B480A
:105AA00090ED000A724880ED010AD4E001207149AE
:105AB000C1F82802764890ED000A6D4880ED010A91
:105AC000744890ED000A6A4880ED030AD0ED030A9D
:105AD000714890EDFC1A70EEC10AB0EE600A07F052
