:020000040800F2
:10000000706500206D020008750200087702000884
:10001000790200087B0200087D0200080000000051
:100020000000000000000000000000007F02000847
:100030008102000800000000130500089940000834
:10004000870200088702000887020008870200086C
:10005000870200088702000887020008870200085C
:10006000870200088702000887020008870200084C
:10007000870200088702000887020008870200083C
:10008000870200088702000887020008FD060008B2
:100090008905000887020008870200088702000817
:1000A000870200088702000887020008870200080C
:1000B00087020008870200088702000887020008FC
:1000C00087020008870200088702000887020008EC
:1000D000870200081942000887020008870200080A
:1000E00087020008870200088702000887020008CC
:1000F00087020008870200088702000887020008BC
:1001000087020008870200088702000887020008AB
:10011000870200088702000887020008870200089B
:10012000870200088702000887020008870200088B
:10013000870200088702000887020008710700088C
:1001400025070008870200088702000887020008C8
:100150008702000887020008870200088142000821
:10016000870200088702000887020008870200084B
:10017000870200088702000887020008870200083B
:10018000870200088702000800F002F800F05EF81D
:100190000AA090E8000C82448344AAF10107DA45E2
:1001A00001D100F053F8AFF2090EBAE80F0013F0D6
:1001B000010F18BFFB1A43F001031847345D00001C
:1001C000545D00000A444FF0000C10F8013B13F09E
:1001D000070408BF10F8014B1D1108BF10F8015BA0
:1001E000641E05D010F8016B641E01F8016BF9D193
:1001F00013F0080F1EBF10F8014BAD1C0C1B09D1EA
:100200006D1E58BF01F801CBFAD505E014F8016B5B
:1002100001F8016B6D1EF9D59142D6D370470000ED
:100220000023002400250026103A28BF78C1FBD8FF
:10023000520728BF30C148BF0B6070471FB505F09B
:1002400053FD00F0EFF81FBD10B510BD00F010F920
:100250001146FFF7F3FF05F009FD00F02EF903B496
:10026000FFF7F2FF03BC00F031F9000009488047B6
:1002700009480047FEE7FEE7FEE7FEE7FEE7FEE788
:10028000FEE7FEE7FEE7FEE704480549054A064BA0
:10029000704700000141000889010008705F0020DC
:1002A00070650020706100207061002072B6704798
:1002B00062B67047EFF3108072B6704780F3108813
:1002C000704730BF704720BF7047B0FA80F070476A
:1002D00090FAA0F0B0FA80F0704790FAA0F0704762
:1002E000032A40F2308010F0030C00F0158011F862
:1002F000013BBCF1020F624498BF11F801CB00F83A
:10030000013B38BF11F8013BA2F1040298BF00F88D
:1003100001CB38BF00F8013B11F0030300F025804A
:10032000083AC0F0088051F8043B083A51F804CB71
:10033000A0E80810F5E7121D5CBF51F8043B40F837
:10034000043BAFF30080D20724BF11F8013B11F842
:1003500001CB48BF11F8012B24BF00F8013B00F886
:1003600001CB48BF00F8012B704710B5203AC0F010
:100370000B80B1E81850203AA0E81850B1E81850A6
:10038000A0E81850BFF4F5AF5FEA027C24BFB1E8E3
:100390001850A0E8185044BF18C918C0BDE8104054
:1003A0005FEA827C24BF51F8043B40F8043B08BF5D
:1003B0007047D20728BF31F8023B48BF11F8012B24
:1003C00028BF20F8023B48BF00F8012B70474FF0D0
:1003D000000200B5134694469646203922BFA0E895
:1003E0000C50A0E80C50B1F12001BFF4F7AF0907A1
:1003F00028BFA0E80C5048BF0CC05DF804EB890092
:1004000028BF40F8042B08BF704748BF20F8022BD4
:1004100011F0804F18BF00F8012B704770477047EC
:100420007047000070B5064C7C44064D7D4403E0E7
:10043000206820448047241DAC42F9D170BD0000E3
:10044000E45A0000E85A000010B500F009F800680E
:1004500010BD10B5044600F003F8046010BD0000A4
:1004600000487047105F002000487047105F002070
:100470007546FFF7F9FFAE4605006946534620F082
:100480000700854618B020B5FFF7FEFEBDE8204006
:100490004FF000064FF000074FF000084FF0000B40
:1004A00021F00701AC46ACE8C009ACE8C009ACE8F3
:1004B000C009ACE8C0098D46704710B50446AFF3DB
:1004C00000802046BDE81040FFF7C9BE0149182052
:1004D000ABBEFEE7260002007047000022484FF640
:1004E000FF710170002080F309882048016881F3C2
:1004F00008881F484FF08051016062B6FEE71C4833
:100500004FF080510160704719484FF080510160F1
:10051000704772B6EFF3098050B11EF0100F08BF9C
:1005200020ED108A203880E8F00F12490968086031
:1005300000B5114880475DF804EB104810490A786F
:1005400002700C480F490A680260106890E8F00FCA
:1005500020301EF0100F08BFB0EC108A80F309881D
:100560004EF0040E62B6704722ED00E0C401002098
:1005700004ED00E0BC010020D12400083A01002075
:100580003B010020C001002010B500BF00BFFFF7F5
:1005900091FE044600BF00BF00F056FE00BF00BF42
:1005A0002046FFF78BFE00BF00BF4D4A00214D489B
:1005B00000F025FA4A480068A0F2012010B1012895
:1005C0007ED142E0464804F007FB4749C1F8B80134
:1005D0000021464805F06EFA4548006848B90021F8
:1005E0004148C0F8C011C0F8C4110120404908605A
:1005F0002AE03D4890ED710AB8EEC00AF7EE000A15
:1006000060EE200A90ED730AB8EEC01A80EE810AFF
:1006100090ED721AC0EE010A9FED360A20EE800AB4
:1006200080ED530A2E4804F07DFD00EE100AB8EE6E
:10063000C00AF7EE000A20EE200A2B48D0ED720A1D
:1006400080EE201A80ED3E1A46E0254804F0C4FAF8
:100650002549C1F8CC0000212348CC3005F02AFA06
:100660002548006848B900211F48C0F8D410C0F8D8
:10067000D8100120204908602CE01B4890ED360A74
:10068000B8EEC00AF7EE000A60EE200A90ED380AD4
:10069000B8EEC01A80EE810A90ED371AC0EE010A5A
:1006A0009FED140A20EE800A80ED180A0C4804F031
:1006B00039FD00EE100AB8EEC00AF7EE000A00E0BD
:1006C00009E020EE200A0848D0ED370A80EE201A13
:1006D00080ED031A00E000BF00BF00F0CBFD10BDAD
:1006E000A844002000640040584500201047002026
:1006F000340000200000B4433800002010B500BFD3
:1007000000BFFFF7D7FD044600BF00BF00F09CFD0F
:1007100000BF00BF2046FFF7D1FD00BF00BF00F0C3
:10072000A9FD10BD10B500BF00BFFFF7C3FD044613
:1007300000BF00BF00F088FD00BF00BF2046FFF7EC
:10074000BDFD00BF00BF084A0021084800F057F96E
:1007500005480068A0F2012000B900E000BF00BF1A
:1007600000F088FD10BD0000BC440020006800407F
:1007700010B500BF00BFFFF79DFD044600BF00BFDE
:1007800000F062FD00BF00BF2046FFF797FD00BFED
:1007900000BF00F06FFD10BD10B504460B48844249
:1007A00009D10121480603F0E3FB00214FF000705E
:1007B00003F0DEFB08E00121880603F0D9FB0021ED
:1007C0004FF0806003F0D4FB10BD000000640040D7
:1007D00010B50021837A012202FA03F13D4A126822
:1007E00042F001023B4B1A603A4A1C3212688A43BB
:1007F000384B1C331A60027BCAB9364A0C32126875
:100800008A43344B0C331A604288C38842EA03435C
:10081000304A4032847A42F834300288838842EA8F
:1008200003432C4A4032847A02EBC4025360027BB9
:10083000012A19D1274A0C3212680A43254B0C337E
:100840001A604288038842EA0343224A4032847A8B
:1008500042F83430C288838842EA03431D4A40325A
:10086000847A02EBC4025360C27A3AB9194A121D63
:1008700012688A43174B1B1D1A6006E0154A121DA9
:1008800012680A43134B1B1D1A60028932B9114AC0
:10089000143212688A430F4B14331A600289012AFA
:1008A00006D10C4A143212680A430A4B14331A60F8
:1008B000427B012A06D1074A1C3212680A43054BC3
:1008C0001C331A60034A126822F00102014B1A60BD
:1008D00010BD0000006600401AB143690B4343613C
:1008E00002E043698B434361704730B50246002004
:1008F0000023146824F002041460146844F0010416
:10090000146000E05B1C546804F001041CB94FF64D
:10091000FF74A342F6D1546804F001040CB900201E
:100920006CE08C79012C04D1146844F080041460CC
:1009300003E0146824F080041460CC79012C04D105
:10094000146844F04004146003E0146824F0400488
:1009500014600C7A012C04D1146844F02004146053
:1009600003E0146824F0200414604C7A012C04D1B4
:10097000146844F01004146003E0146824F01004B8
:1009800014608C7A012C04D1146844F008041460BB
:1009900003E0146824F008041460CC7A012C04D11C
:1009A000146844F00404146003E0146824F00404A0
:1009B00014608C78A407CD7844EA05640D7944EA84
:1009C00005444D7944EA05540D886D1E2C43D461CD
:1009D000146824F001041460002300E05B1C5468D8
:1009E00004F001041CB14FF6FF74A342F6D1546821
:1009F00004F001040CB1002000E0012030BD10B56E
:100A000000F5D87303EB01131B6803F004031372A2
:100A1000137A53B900F5D87303EB01131B6840F246
:100A2000FF7404EA5353136009E000F5D87303EB35
:100A300001131B686FF0604404EAD303536000F5B0
:100A4000D87303EB01131B6803F00203537200F524
:100A5000D87303EB01135B6803F00F03937200F587
:100A6000D87303EB01135B681B0AD37400F5D873CA
:100A700003EB01139B68D37200F5D87303EB0113EA
:100A80009B681C0A147300F5D87303EB01139B6871
:100A90001C0C547300F5D87303EB01139B681B0EF9
:100AA000937300F5D87303EB0113DB68D37300F580
:100AB000D87303EB0113DB681C0A147400F5D873B8
:100AC00003EB0113DB681C0C547400F5D87303EBC3
:100AD0000113DB681B0E937421B9C36843F0200334
:100AE000C36003E0036943F02003036110BD10B548
:100AF00002460020936803F08063B3F1806F00D159
:100B000010E0936803F00063B3F1006F01D101209E
:100B100008E0936803F08053B3F1805F01D10220B5
:100B200000E00420042874D002F5C07303EB001326
:100B30001B6803F0010402F5C07303EB00131C6093
:100B40000B7A7BB94B7A0C8843EA445302F5C074A4
:100B500004EB00142468234302F5C07404EB001472
:100B6000236010E00B7A4C6843EAC4034C7A2343B9
:100B700002F5C07404EB00142468234302F5C0742A
:100B800004EB001423608B7A03F00F038B7202F5E1
:100B9000C07303EB00135B6823F00F0402F5C0730E
:100BA00003EB00135C6002F5C07303EB00135B689A
:100BB0008C7A234302F5C07404EB001463608B7BD2
:100BC0001C064B7B44EA03440B7B44EA0323CC7AA8
:100BD000234302F5C07404EB0014A3608B7C1C0655
:100BE0004B7C44EA03440B7C44EA0323CC7B234341
:100BF00002F5C07404EB0014E36002F5C07303EB6C
:100C000000131B6843F0010402F5C07303EB0013EB
:100C10001C6010BD10B504F03FFC04F047FC10BD93
:100C200010B5002400BF00BFFFF744FB044600BF1F
:100C300000BF1021054800F0BCF900BF00BF2046EE
:100C4000FFF73CFB00BF00BF10BD0000A74800201D
:100C50000149086070470000F400002010B503F05F
:100C60007DFE04460848006840F080700649086030
:100C70000020064948600846006840F0010008600E
:100C80002046FFF7E5FF10BDFCED00E0001000E09E
:100C90000149486870470000001000E00246094B17
:100CA0009A4201D2084801E00648103801F000538A
:100CB0001BB1064B0B40C36002E0044B0B4083604A
:100CC0007047000010640240006002407D0F7D0FFD
:100CD00021B1026842F00102026003E0026822F0E2
:100CE0000102026070470000016821F0010101600B
:100CF0000021016041608160C16001612121416189
:100D00004A49884204D13D21484A103A91608CE01A
:100D100046491831884205D14FF47461434A103A6C
:100D2000916082E041493031884205D14FF474111D
:100D30003E4A103A916078E03C494831884205D1FA
:100D40004FF07461394A103A91606EE03749603172
:100D5000884204D13649354A103AD16065E03349BA
:100D60007831884204D13349304A103AD1605CE08E
:100D70002E499031884204D12F492C4A103AD16033
:100D800053E02A49A831884205D14FF03D51274A06
:100D9000103AD16049E02949884204D13D21274ACF
:100DA000083A116041E025491831884205D14FF4D5
:100DB0007461224A083A116037E020493031884294
:100DC00005D14FF474111D4A083A11602DE01B49FA
:100DD0004831884205D14FF07461184A083A1160D1
:100DE00023E016496031884204D11149134A121F89
:100DF00011601AE011497831884204D10D490F4A37
:100E0000121F116011E00D499031884204D10A4946
:100E10000A4A121F116008E00849A831884204D12B
:100E20004FF03D51054A121F11607047106002409B
:100E30003D000020400F002000003D2010640240D3
:100E40000146486880B2704710B501F080034BB18D
:100E500022B1436943F08003436103E0436923F017
:100E60008003436180290BD02AB1036801F01E047E
:100E70002343036004E0036801F01E04A3430360FE
:100E800010BD000010B500220268134B1A40CC6858
:100E90000B6823434C6923438C692343CC69234368
:100EA0000C6A23434C6A23438C6A23434C6B2343D1
:100EB0008C6B23431A430260426922F00702D1E996
:100EC0000B3423431A4342610B6943604B688360D0
:100ED0008B68C36010BD00003F801CF0F0B50A466F
:100EE00000210023002400BF3DE0012505FA01F3A5
:100EF000156805EA03049C4234D105684F000326B7
:100F0000BE40B543056015794E00B54006683543CF
:100F100005601579012D02D01579022D16D185684D
:100F20004F000326BE40B543856055794E00B5405D
:100F3000866835438560456801268E40B543456027
:100F4000456896798E40B6B235434560C5684F0016
:100F50000326BE40B543C560D5794E00B540C6688E
:100F60003543C560491C1029BFD3F0BDF0B500233F
:100F700000244D07ED0E02FA05F3CE1000F1200516
:100F800055F826504E07F70E0F26BE40B543CF103A
:100F900000F1200646F82750CE1000F1200555F844
:100FA000265045EA0304CE1000F1200545F82640FE
:100FB000F0BD30B505460C4622460021284600F01B
:100FC00001F830BD2DE9F04105460B469446002757
:100FD000002402E03F021F43641C042CFAD3604645
:100FE00005F00306294646B1344603E001F8013B0B
:100FF000401E641C08B1042CF8D30A4601E080C2EC
:10100000001F0428FBD2114602E001F8013B401EFC
:101010000028FAD1BDE8F08170B5002100230F222D
:10102000C4781CB3174C246804F4E064C4F5E0648D
:10103000C4F30721C1F10404E3B20A4144789C409F
:10104000E1B28478144021430C07210E0E4C057840
:101050006155047804F01F050124AC4005786D113A
:10106000AD0005F1E025C5F8004109E0047804F081
:101070001F050124AC40054D0678761145F8264041
:1010800070BD00000CED00E000E400E080E100E055
:1010900002490143024A1160704700000000FA054E
:1010A0000CED00E07047000010B50348006810B177
:1010B00001480068804710BD0C01002070B504464F
:1010C00000F0AEF8002041490870414908704149DC
:1010D0000870414908604149086041490870414928
:1010E0000870414908704149086041490860414918
:1010F00008604148006858B14048056845B13E481D
:10110000066803E0761E002028602D1D002EF9D110
:1011100000203B4908603B4908603B4908603B4967
:1011200008603B4908603B4908603B4908603B490F
:10113000087001F0E3FE01F01DFF204601F030FCD5
:10114000208800B170BD204601F090FC208800B1DD
:10115000F8E7204601F096FC208800B1F2E720462F
:1011600001F010FD208800B1ECE7204601F0F6FE0A
:10117000208800B1E6E7204601F0BCFF208800B1DE
:10118000E0E7204602F0ECF9208800B1DAE72046DB
:1011900001F034FC208800B1D4E7204602F04CFD79
:1011A000208800B1CEE7204602F024F9208800B163
:1011B000C8E7204602F0A4FD208800B1C2E701F094
:1011C0001BFBFFF76FFF00BFBCE700002001002002
:1011D0002101002054010020BC010020C00100209A
:1011E0003A0100203B0100203C0100204801002082
:1011F0004C01002050010020245D0008205D000803
:101200000001002004010020080100200C01002042
:10121000100100201401002018010020820100208C
:10122000064800680649096800EB81000549086026
:101230000846006820F0070008607047205D00083D
:10124000245D0008C401002008480078012800D06F
:10125000704707480078FA2800DBF9E7044800786F
:10126000401C0349087000BFF2E700002101002084
:101270002001002010B500242D480078012800D05E
:1012800010BD00BFFFF716F8044600BF29480078DC
:1012900028B900BF2046FFF711F800BFF0E7254846
:1012A0000078401E2349087008460078002805DDB4
:1012B00000BF2046FFF702F800BFE1E71E480078B4
:1012C000002805DD00BF2046FEF7F8FF00BFD7E786
:1012D00001F000FE194908700846007800EB400054
:1012E000174951F820001749086008460068164958
:1012F0000968884205D100BF2046FEF7DFFF00BF26
:10130000BEE710480068D0F88400401C0D49096809
:10131000C1F884000D480068401C0C490860FFF7C4
:10132000F3F800BF2046FEF7C9FF00BF00BFA7E7E4
:101330002101002020010020540100203B01002059
:10134000BC590020C0010020BC0100207801002011
:101350002DE9F04104460E46154600271B4800784B
:10136000002804DD42F6E1602880BDE8F0811CB968
:1013700045F6C3502880F8E700BF00BFFEF79AFF8C
:10138000074600BF00BF1248206066600020206250
:1013900084F82500A062402084F8240004F10800AD
:1013A00001F0A7FC204601F0D5FB0A480088401C4C
:1013B0000849088000BF00BF3846FEF77FFF00BF26
:1013C00000BF0020288000BFCFE7000020010020E0
:1013D0004D555458380100202DE9F04788B0054696
:1013E000894690461C46109E4FF0000A8A480078B5
:1013F000002805DD46F2AE10308008B0BDE8F08769
:101400001DB945F6C3503080F7E7B8F1000F03D09F
:10141000B8F5004F02D100E000BF03E045F62560BB
:101420003080EAE700BF7D492868884203D045F64E
:10143000C4503080E1E70CB10020206000BF00BF45
:10144000FEF738FF824600BF00BF95F82500C0B9FF
:101450007348006828627248006890F8370085F881
:101460002400012085F825000CB1A86A206000BF87
:1014700000BF5046FEF722FF00BF00BF00203080B3
:10148000BBE76749286A0968884212D195F82500A8
:10149000401C85F825000CB1A86A206000BF00BF81
:1014A0005046FEF70BFF00BF00BF45F28270308050
:1014B000A3E708F4004050B100BF00BF5046FEF75C
:1014C000FDFE00BF00BF46F2B010308095E75548E2
:1014D000007800280ADD00BF00BF5046FEF7EEFE90
:1014E00000BF00BF46F66350308086E72F6A97F84A
:1014F00037004B49096891F8371088423ADD97F870
:10150000360008282AD2DFE800F004151E1F17163F
:101510002021384601F094FD4148006890F83700DA
:1015200087F8370097F8370001F0F4FC384601F0EF
:1015300049FD1EE000BF00BF3948006890F8370041
:1015400087F8370015E000BF00BF00BF34480068CF
:1015500090F83710384601F0A9FB0AE000BF00BF41
:101560005046FEF7ABFE00BF00BF46F62D60308050
:1015700043E700BF4B4604222946684601F00EFBB4
:1015800000BF00BF5046FEF799FE00BF00BF00F04D
:1015900005F900BF00BFFEF78DFE824600BF00BF09
:1015A0001F48006890F8350030B101280CD002289F
:1015B0001AD0032821D110E01CB119480068006C32
:1015C0002060002030801CE01CB115480068006CD1
:1015D000206046F2A910308013E00CB1002020609A
:1015E00047F2D92030800CE01CB10D480068006C37
:1015F000206045F6C250308003E046F62E60308011
:1016000000BF00BF00BF00BF5046FEF757FE00BF3F
:1016100000BF00BFF1E60000200100204D555458E6
:10162000BC010020540100202DE9F84F04468846F3
:1016300015464FF0000A55480078002804DD46F2B0
:101640000E202880BDE8F88F1CB945F6C3502880CD
:10165000F8E7B8F1000F03D0B8F5004F02D100E071
:1016600000BF03E045F625602880EBE700BF48494E
:101670002068884203D045F6C4502880E2E700BFC6
:1016800000BFFEF717FE824600BF00BF4149206A37
:10169000096888420AD000BF00BF5046FEF70EFE20
:1016A00000BF00BF45F281702880CBE7FFF7F0FA5A
:1016B0000746A76294F82500401E84F8250094F898
:1016C000250000280ADD00BF00BF5046FEF7F6FDEA
:1016D00000BF00BF45F283702880B3E704F108091A
:1016E000B9F8080068B90020206284F8250000BF1E
:1016F00000BF5046FEF7E2FD00BF00BF002028807B
:10170000A0E72448006890F8370094F82410884235
:1017100019D02048006801F093FC94F824001D497A
:10172000096881F837001B49096891F8370001F012
:10173000F1FB1848006801F065FC1648006890F855
:10174000370015490870D9F800008668266296F8B7
:10175000370084F82400012084F8250000231A466D
:1017600031462046009701F035FB00BF00BF5046D0
:10177000FEF7A4FD00BF00BF08F4004008B900F068
:101780000DF80020288000BF5CE700002001002049
:101790004D555458BC0100203A01002010B50024DA
:1017A0001F480078002800DD10BD1E480078002882
:1017B00000DDF9E700BFFEF77DFD044600BF01F044
:1017C00089FB194908700846007800EB400017496A
:1017D00051F8200016490860084600681549096854
:1017E000884205D100BF2046FEF768FD00BFDBE759
:1017F0000F480068D0F88400401C0D490968C1F802
:1018000084000D480068401C0B490860FEF777FE15
:1018100000BF2046FEF752FD00BF00BFC4E7000036
:1018200020010020540100203B010020BC59002071
:10183000C0010020BC0100207801002070B50446E2
:10184000002518480078002803DD46F66250208005
:1018500070BD15480078012803D045F689602080C6
:10186000F6E712480078FA2803DB45F209202080C9
:10187000EEE700BF00BFFEF71DFD054600BF00BF3D
:101880000A480078401C0949087001F007FC00BFB5
:1018900000BF2846FEF712FD00BF00BF00202080D9
:1018A00000BFD5E7200100202101002054010020C5
:1018B00070B50446002520480078002803DD46F670
:1018C0006550208070BD1D480078012803D045F682
:1018D00089602080F6E71A48007818B946F6645007
:1018E0002080EFE700BF00BFFEF7E4FC054600BF25
:1018F00000BF13480078401E114908700846007860
:1019000000280ADD00BF00BF2846FEF7D7FC00BF55
:1019100000BF46F663502080D4E701F0CDFB00BF46
:1019200000BF2846FEF7CAFC00BF00BFFFF736FF26
:101930000020208000BFC5E72001002021010020F9
:101940005401002010B5044612480078E8B901F0AF
:10195000C1FA1149087008460078104908700E480D
:10196000007800EB40000E4951F820000D49086056
:10197000084600680C490860012006490870FEF717
:10198000ADFD43F69920208002E045F68A60208074
:1019900010BD0000210100203B0100203A01002081
:1019A000BC590020C0010020BC0100202DE9F041FD
:1019B00007464FF0000800BF00BFFEF77BFC8046E3
:1019C00000BF00BF00203B4908803B4908603B49FD
:1019D00008603B4908603B4908603B49088100BFFB
:1019E00000BF4046FEF76AFC00BF00BF00BF00BF5B
:1019F000FEF760FC804600BF00BF3448046800BFAB
:101A000000BF4046FEF75AFC00BF00BF21E000BF08
:101A100000BFFEF74FFC804600BF00BF00206C34C3
:101A2000E06320602063A061A082E0826062A06227
:101A3000FFF72EF920626C3C04F158060020B081BB
:101A4000D4F8B04000BF00BF4046FEF737FC00BFEF
:101A500000BF002CDBD100BF00BFFEF72BFC80468F
:101A600000BF00BF1A48056800BF00BF4046FEF730
:101A700025FC00BF00BF12E000BF00BFFEF71AFC4C
:101A8000804600BF00BF05F120060020B081AD698F
:101A900000BF00BF4046FEF711FC00BF00BF002D95
:101AA000EAD102F08FF802F0C5F900203880BDE8D5
:101AB000F0810000620100207401002088010020F4
:101AC000AC0100204C010020B05900207C01002016
:101AD00040010020F8B5044600266946324800F06F
:101AE000DBFCBDF8000018B1BDF800002080F8BD97
:101AF0006A460021022000F02FFDBDF8000018B159
:101B0000BDF800002080F2E700BF00BFFEF7D2FB67
:101B1000064600BF00BF00202449086000BF00BF88
:101B20003046FEF7CBFB00BF00BF00252048006811
:101B300020490968884205D91D4800681D4909687F
:101B4000B0FBF1F525B91A4800680A21B0FBF1F5A0
:101B50006A460021284600F0FFFC6946124800F062
:101B6000B5F9BDF8000018B1BDF800002080BEE74F
:101B700000BF00BFFEF79EFB064600BF00BF00206F
:101B80000D490860094800680C49086001200C49AB
:101B9000087000BF00BF3046FEF790FB00BF00BFDB
:101BA0000020208000BFA2E7585E002064010020D2
:101BB000545D00083C5D00087401002068010020AD
:101BC0007001002010B50348006810B1014800689A
:101BD000804710BD100100202DE9FF4F85B004465D
:101BE0009046DDE91995159F139E002002905C48F0
:101BF0000078002805DD47F24A10288009B0BDE8CA
:101C0000F08F1CB947F2AD102880F7E7B8F1000F4C
:101C100003D147F24F102880F0E71EB946F62F6037
:101C20002880EBE74F480068874203D246F63060D1
:101C30002880E3E71498B84203D346F63160288041
:101C4000DCE71298402803D346F273202880D5E7BA
:101C500012983F2806D14448844203D046F27320AC
:101C60002880CBE7204601F08BFC0020288009F07B
:101C7000010088B109F0020070B1B3460020049061
:101C800007E00020CBF800000BF1040B0498401C87
:101C900004900498B842F4D3149806EB80000390A3
:101CA000CDE9007932464046039B089900F0C6FA18
:101CB0008346C4F828800898E0620698206212984B
:101CC00084F83700C4F800B00398A06018986060EA
:101CD0006662A763A4F83C904FF0000A08E0002178
:101CE00004F1700040F82A100AF1010000F0FF0A28
:101CF000BAF1000FF3D004F15800169900F022FF5A
:101D0000204600F037F800BF00BFFEF7D3FA02907C
:101D100000BF00BF94F8370001F0FCF8204601F046
:101D200071F9204601F0E2FB10480088401C0F4981
:101D300008800F480078012807D000BF00BF029834
:101D4000FEF7BCFA00BF00BF58E700BF00BF029813
:101D5000FEF7B4FA00BF00BFFFF720FD00BF4DE75C
:101D600020010020505D0008F8580020800100206C
:101D70002101002010B504460348006818B1204630
:101D800001490968884710BD0001002070B504466C
:101D90000D46002643480078002803DD47F24E1028
:101DA000288070BD4048844203D147F24C102880FF
:101DB000F7E77CB900BF00BFFEF77CFA064600BF1C
:101DC00000BF3A48046800BF00BF3046FEF776FA0D
:101DD00000BF00BF00BF00BFFEF76CFA064600BFA1
:101DE00000BF94F8360008282DD2DFE800F004097F
:101DF0000E10080A0F11204601F022F92EE02DE006
:101E000000BF204601F0B2FE28E000BF00BF00BFC7
:101E100094F83400082810D2DFE800F00407050821
:101E2000090A0B0600BF00BF08E000BF00BF00BFEB
:101E300000BF204600F095FF00E000BF00BF204635
:101E400001F094FE0AE000BF00BF3046FEF736FA0C
:101E500000BF00BF46F62D602880A2E700BF04F156
:101E6000580000F04DFE204600F024F8204601F016
:101E700055FB0F480088401E0D490880204601F0A0
:101E80007FFBFF2084F8360000BF00BF3046FEF71E
:101E900015FA00BF00BF00202880FFF77FFC00BFBD
:101EA0007FE7000020010020F8580020BC0100203E
:101EB0008001002010B504460348006818B1204690
:101EC00001490968884710BD0401002070B5044627
:101ED0000D46002615480078002803DD47F255100E
:101EE000288070BD00BF00BFFEF7E4F9064600BFC2
:101EF00000BF1CB10E48006884420AD100BF00BF79
:101F00003046FEF7DBF900BF00BF47F257102880CC
:101F1000E7E700BF00BF3046FEF7D0F900BF00BFC3
:101F20002946204601F086FB00BFDAE720010020A9
:101F3000BC01002010B504460348006818B12046D3
:101F400001490968884710BD080100202DE9F047C4
:101F500080460E4614461D464FF000096F48007833
:101F6000002805DD46F2AE1028800020BDE8F0878D
:101F70001EB1B6F5004F02D100E000BF04E045F607
:101F8000256028800020F1E700BF0CB10020206010
:101F900000BF00BFFEF78EF9814600BF00BF60485A
:101FA0000068406CA8B35E480068406C401E5C4905
:101FB000096848645A480068476C1CB15848006872
:101FC000006C2060FEF764FE55490968096C401AF0
:101FD00053490968C1F8980051480068D0F89C003E
:101FE0004F490968D1F89810884207D24C480068D8
:101FF000D0F898004A490968C1F89C0000BF00BFAA
:102000004846FEF75BF900BF00BF00202880384635
:10201000ACE7FFE706F4004058B100BF00BF4846F8
:10202000FEF74CF900BF00BF46F2B0102880002038
:102030009CE73C48007800280BDD00BF00BF484605
:10204000FEF73CF900BF00BF46F663502880002031
:102050008CE7434607220021084600F09FFD00BFA1
:1020600000BF4846FEF72AF900BF00BFFFF796FB06
:1020700000BF00BFFEF71EF9814600BF00BF284821
:10208000006890F8350020B1012826D0032834D10B
:102090002CE0FCB122480068006C2060FEF7F8FDDF
:1020A0001F490968096C401A1D490968C1F8980060
:1020B0001B480068D0F89C0019490968D1F89810AD
:1020C000884207D216480068D0F898001449096879
:1020D000C1F89C000020288013E01CB11048006863
:1020E000006C206046F2A91028800AE00CB10020A4
:1020F000206047F2D920288003E046F62E60288031
:1021000000BF00BF06480068476C00BF00BF4846DC
:10211000FEF7D4F800BF00BF384627E720010020B3
:10212000BC010020540100202DE9F04106460D4677
:1021300014461DB1B5F5004F02D100E000BF05E027
:1021400045F6256020800020BDE8F08100BFFEF745
:102150009FFD8046234642462946304601F0F6FA66
:1021600007463846F0E700002DE9F04705460E46E1
:1021700017461C464FF0000A2E480078002804DD60
:1021800047F259102080BDE8F0871EB946F2D520ED
:102190002080F8E71FB946F2D5202080F3E700BF82
:1021A00000BFFEF787F8824600BF00BF0DB9224886
:1021B0000568286868B900BF00BF5046FEF77EF882
:1021C00000BF00BF00203060386047F2521020800E
:1021D000D9E795F83C0000F0010068B900BF00BFE6
:1021E0005046FEF76BF800BF00BF0020306038603B
:1021F00047F254102080C6E700BF00BF5046FEF7EC
:102200005DF800BF00BF4FF00008D5F8249003E050
:1022100009F1040908F10108D9F800000028F7D0F5
:10222000C6F80080A86BA0EB080038600020208072
:1022300000BFA8E720010020BC010020F0B5044643
:10224000DDE9055602EB850020F007004FF0000C99
:10225000071F3846C7F800C04FF4805C071F384698
:10226000C7F800C04FF0150C071F3846C7F800C06C
:102270004FF0140C071F3846C7F800C04FF0130C7E
:10228000071F3846C7F800C04FF0120C071F38462A
:10229000C7F800C04FF0110C071F3846C7F800C040
:1022A0004FF0100C071F3846C7F800C04FF0090C5C
:1022B000071F3846C7F800C04FF0080C071F384604
:1022C000C7F800C04FF0070C071F3846C7F800C01A
:1022D0004FF0060C071F3846C7F800C04FF0050C3A
:1022E000071F3846C7F800C04FF0040C071F3846D8
:1022F000C7F800C04FF0030C071F3846C7F800C0EE
:102300004FF0020C071F3846C7F800C04FF0010C11
:10231000071F3846C7F800C04FF0000C071F3846AB
:10232000C7F800C04FF0807C071F3846C7F800C0D0
:10233000071F38463C60DFF85CC1071F3846C7F806
:1023400000C04FF0123C071F3846C7F800C04FF0DE
:10235000033C071F3846C7F800C04FF0023C071F78
:102360003846C7F800C0071F38463B60071F38468D
:1023700039604FF0310C071F3846C7F800C04FF0E6
:10238000300C071F3846C7F800C04FF0290C071F54
:102390003846C7F800C04FF0280C071F3846C7F86A
:1023A00000C04FF0270C071F3846C7F800C04FF099
:1023B000260C071F3846C7F800C04FF0250C071F32
:1023C0003846C7F800C04FF0240C071F3846C7F83E
:1023D00000C04FF0230C071F3846C7F800C04FF06D
:1023E000220C071F3846C7F800C04FF0210C071F0A
:1023F0003846C7F800C04FF0200C071F3846C7F812
:1024000000C04FF0190C071F3846C7F800C04FF046
:10241000180C071F3846C7F800C04FF0170C071FED
:102420003846C7F800C04FF0160C071F3846C7F8EB
:1024300000C04FF0113C071F3846C7F800C04FF0EE
:10244000103C071F3846C7F800C04FF0093C071F73
:102450003846C7F800C04FF0083C071F3846C7F899
:1024600000C04FF0073C071F3846C7F800C04FF0C8
:10247000063C071F3846C7F800C04FF0053C071F51
:102480003846C7F800C04FF0043C071F3846C7F86D
:1024900000C0F0BD3537000870B505460C460A4847
:1024A0000078002803DD47F25D10208070BD0748EA
:1024B000854203D147F25B102080F7E7214628468A
:1024C00001F026FA00BFF1E720010020F8580020B3
:1024D00010B51D48006810B11B4800688047FEF722
:1024E000D7FB04461948006819490968884215D085
:1024F00016480068D0F88C00201A14490968C1F801
:10250000880012480068D0F8900010490968D1F896
:10251000881008440D490968C1F890000C4800680B
:10252000C0F88C4009480068D0F8A800094909683B
:10253000884205D20748006804490968C1F8A80024
:1025400000200449086010BD14010020BC010020D7
:10255000C0010020500100202DE9F04105460E4643
:102560001446002727480078002804DD47F275202C
:102570002080BDE8F08124480078002803DD46F67D
:1025800063502080F5E736B1022E05D0042E0AD024
:10259000082E09D101E000BF00BF1DB947F27E201F
:1025A0002080E6E704E003E045F625602080E0E7D0
:1025B00000BF00BF00BFFDF77DFE074600BF00BFA4
:1025C0002346324629461148006801F071FA2088F6
:1025D00038B100BF00BF3846FDF770FE00BF00BF36
:1025E000C7E70A48006800F02BFD00BF00BF38466F
:1025F000FDF764FE00BF00BFFFF7D0F80020208089
:1026000000BFB6E72001002054010020BC010020DB
:102610002DE9FF5F05460E4617469846DDE90EA4F4
:10262000002000905A480078002804DD47F2752009
:102630002080BDE8FF9F57480078002803DD46F65C
:1026400063502080F5E70AF00E0BBBF1000F09D0B4
:10265000BBF1020F07D0BBF1040F10D0BBF1080F84
:102660000ED101E000BF00BFB8F1000F06D12FB9B5
:1026700026B91DB947F27E202080DAE704E003E0A6
:1026800045F625602080D4E700BF2AF01E0008B17F
:10269000012000E0002003900398012803D145F6B3
:1026A00025602080C5E7CAF3001002900298C0B9E7
:1026B000B8F57A7F03D347F27B202080B9E73B2F20
:1026C00003DD47F27A202080B3E73B2E03DD47F29B
:1026D00079202080ADE7632D12DD47F2782020803D
:1026E000A7E742F20F70864203DD47F2792020808F
:1026F0009FE7B5F57A7F03DB47F27820208098E7E3
:102700002548D0F800904FF4FA70B0FBF9F040443F
:1027100000FB09F04FF47A71B0FBF1F14FF4616006
:102720006843C6EB061200EB8200384400FB091038
:102730000190019838B300BF00BFFDF7BBFD0090CA
:1027400000BF00BF23465A4614480199006801F0B3
:10275000AFF9208838B100BF00BF0098FDF7AEFD8B
:1027600000BF00BF65E70D48006800F069FC00BFCE
:1027700000BF0098FDF7A2FD00BF00BFFFF70EF8F5
:102780000020208002E047F27E20208000BF50E73A
:102790002001002054010020545D0008BC010020ED
:1027A00008B500F01FF86A4600210A48FFF7BCFC94
:1027B00009480068401E084908600846006838B9A2
:1027C0000648006808606A4600210548FFF7ACFC2F
:1027D00008BD0000745D0020B8010020B401002095
:1027E000585E002010B50348006810B10148006829
:1027F000804710BD18010020244A2549254A264A51
:102800002649274A2748284A284A294A294A2A483D
:102810002A482B4A2B482C4A2C482D4A2D482E4812
:102820002E482F482F4A304A304A3148314A324ADE
:102830003248334833483448344835483548364AB6
:10284000364A374A374A384838483948394A3A4A7E
:102850003A4A3B483B483C483C493D483D4A3E4A51
:102860003E4A3F4A3F4A404A404A4148414A424A1A
:1028700042484348434A444A4448454A454A4648F0
:10288000464800BF00BF00BF70470000885D0008D9
:10289000EC5E0008895D00088A5D00088C5D000818
:1028A000905D0008945D0008915D0008BC5D000823
:1028B000BD5D0008BE5D0008C05D0008C25D000887
:1028C000C45D0008C85D0008E85D0008EA5D000816
:1028D000EC5D0008EE5D0008F05D0008F25D0008A8
:1028E000F45D0008205E0008215E0008225E0008FA
:1028F000245E0008265E0008275E0008285E0008A7
:102900002A5E00082C5E00082E5E0008305E00087B
:10291000325E0008345E0008645E0008655E0008F0
:10292000665E0008675E0008685E00086A5E000870
:102930006C5E0008945E0008955E0008965E0008D4
:10294000975E0008985E00089A5E00089C5E00088A
:10295000A05E0008A15E0008A25E0008A35E000859
:10296000A45E0008A55E0008A65E0008A75E000839
:10297000A85E0008AA5E0008AB5E0008AC5E000816
:10298000AE5E0008B05E0008B15E0008B45E0008EC
:10299000E45E0008E55E0008E65E0008E85E000808
:1029A0000021034A1160034A118001807047000032
:1029B0002401002028010020002419E000BF00BFEE
:1029C000FDF778FC044600BF00BF0A480068401CC1
:1029D0000849086008480068401C0749086000BFB3
:1029E00000BF2046FDF76AFC00BF00BFFEF75CFB9E
:1029F000E4E700001C0100206401002010B58AB04B
:102A0000044600200E4908600B2000210591CDE905
:102A10000704069108460B4909680B4A12680B4BDC
:102A20001B68CDE90132CDE903103F200023084A9D
:102A300008A100900C48FFF7CFF80AB010BD0000C5
:102A40001C010020FC5C0008F85C0008F45C000835
:102A5000B929000875432F4F532D4949492049642E
:102A60006C65205461736B00F85800200021034A04
:102A70001160034A11800180704700002C01002082
:102A80003001002070B501461A4D2D681DB945F280
:102A90001E750D8070BD184D2D881DB945F21D7530
:102AA0000D80F7E7134D28682A681032124D2D88E3
:102AB0006D1EACB2002308E0026000254560058170
:102AC000C560103010325D1CABB2A342F4DB0025B0
:102AD000056045600581C560064D2D68074E35606F
:102AE000054D2D88B5800025F58035810D8000BF0E
:102AF000D0E70000345D00082C5D0008B0590020CC
:102B000010B5014648894B89002B17DD0A680C4B2C
:102B10001B6813600A4C4B6823602346DB884C8992
:102B20001B1B074CE38023469B884C892344044CA1
:102B3000A38000234B818B810B604B6010BD000094
:102B4000B0590020018100224281828102604260EE
:102B50007047000009A1C16100214161084909686D
:102B600011B90021816105E00549096881610449C5
:102B700009684861024908607047000020000000B1
:102B8000340100200021034A1160034A11800180B2
:102B90007047000034010020380100202DE9F04189
:102BA00005460C4616461F461548006880F83460F6
:102BB00000201349096881F835003946104800683B
:102BC00000F07EFC6CB104F10808EC60012229469B
:102BD0000B48006800F016F82946404600F08EF8D1
:102BE00006E0002006490968C887054909680863A6
:102BF00003480168204600F019F8BDE8F0810000A4
:102C0000BC01002010B5C287016300230AE0002444
:102C10004C600C600C614C610C83CC61886020318D
:102C20005C1CA3B29342F2DB10BD000030B548B18A
:102C30004568C1F8B45000F10804226893681D6A21
:102C4000C56113E091F83450022D02D0072D08D150
:102C500003E007A5C1F8B45007E007A5C1F8B450D8
:102C600003E008A5C1F8B45000BF00BF30BD0000AC
:102C70005461736B205100005461736B2053656D78
:102C8000000000002000000030B507A5C1F8B450D6
:102C900000F1080422681AB193681D6AC56101E059
:102CA00001A5C56130BD0000200000002DE9F04302
:102CB00004460F4684F83770256BB4F83E8013E065
:102CC000D5F80C9009F108063089012807D9294662
:102CD000304600F05EF82946304600F00FF8203507
:102CE000A8F101001FFA80F8B8F1000FE8D1BDE8A3
:102CF000F08300210160416001817047F0B58E686A
:102D000096F8375007893FB90127078100274F60A0
:102D10000F600160416023E007897F1C0781026822
:102D200006E0946894F83770AF4200DD02E0526824
:102D3000002AF6D100BF32B900274F6043680B600C
:102D4000596041600CE017682FB9116000270F60CF
:102D50004A60016004E013680B604A6059601160CA
:102D6000F0BD2DE9F0410446256BE68F0AE0D5F869
:102D70000C8008F108072946384600F00AF820358B
:102D8000701E86B2002EF2DC0020E0872063BDE8D2
:102D9000F08110B50489012C03D100240460446043
:102DA00011E00C6824B94A680024146002600AE04B
:102DB0004C6824B90B6800245C60436003E00B6836
:102DC0004A685A6013600489641E048100244C60C0
:102DD0000C6010BD2DE9F84306460C461746984690
:102DE000089D94F8360008285BD2DFE800F004055F
:102DF00008090607323300BF00BF00BF52E000BF22
:102E000094F83400032807D143463A462146304619
:102E1000009500F04AF803E02765A4F85480256483
:102E200036B12046FFF79DFF21463046FFF72CFFC5
:102E300094F83600032802D1204600F097FE204681
:102E400000F0AAF800203434A070607004F834094F
:102E500028E000BF94F83400032807D143463A46DF
:102E600021463046009500F020F803E02765A4F8DD
:102E70005480256436B12046FFF773FF2146304663
:102E8000FFF702FF94F83600072802D1204600F031
:102E90006DFE04203434A0700020607004F8340902
:102EA00000E000BF00BFBDE8F883F0B50446059E12
:102EB000086BCD8F0AE0C768A74204D10461426164
:102EC0000383C66104E020306F1EBDB2002DF2DC2A
:102ED00000BFF0BD70B50025074C03E005F12000F0
:102EE000C5B2241D20680028F8D02068FDF7EDF950
:102EF0002844C5B2284670BDF8000020002004E038
:102F00000021034A42F82010401C0228F8D37047E1
:102F1000F800002030B5420900F01F030121C3F181
:102F20001F04A140034C54F822400C43014D45F8C6
:102F3000224030BDF800002030B5420900F01F03E8
:102F40000121C3F11F04A140034C54F822408C43DB
:102F5000014D45F8224030BDF80000200021034A11
:102F60001160034A11800180704700004001002079
:102F70004401002000210AE001EB4102054B03EB74
:102F8000820000220281026042604A1CD1B24029C4
:102F9000F2D37047BC59002010B5044694F83700AE
:102FA000FFF7B8FF94F8370005490978884203D144
:102FB000204600F027F802E0204600F003F810BD9C
:102FC0003A01002010B590F8373003EB43030C4C66
:102FD00004EB83010B893BB901230B810023C36000
:102FE00003610860486009E00B895B1C0B810B687A
:102FF000C360002303610A681061086010BD00000F
:10300000BC59002010B590F8373003EB43030B4C4C
:1030100004EB83010B893BB901230B810023C360BF
:1030200003610860486008E00B895B1C0B8100238A
:10303000C3604A680261D060486010BDBC5900207E
:103040002DE9F041054695F8370000EB40001249A4
:1030500001EB80042F69EE6887B946B90020208112
:103060002060606095F83700FFF766FF0EE020896A
:10307000401E208100203061266007E02089401E2C
:103080002081FE600EB9676000E037610020286192
:10309000E860BDE8F0810000BC59002010B504488C
:1030A0000078012803D1FDF7F3FD0249086010BD47
:1030B000540100204801002010B50A48007880B96A
:1030C000FDF7E6FD08490968441A08480068A0426F
:1030D00001D20648046006480068A04201D20448B4
:1030E000046010BD54010020480100204C01002064
:1030F000500100200021034A1160034A1180018021
:1031000070470000580100205C01002086B00020BC
:10311000009006E0A8490968480001AA0021FFF7CD
:103120001BFAA64800780128F4D101A8FEF73EFC5E
:103130000027A3480068A0490968884205D9A0482B
:1031400000689D490968B0FBF1F727B99C48006801
:103150000A21B0FBF1F72EE1FDF79AFD804600BF92
:1031600000BFFDF7A7F8009000BF00BF95480068BA
:103170009549086000209349086000BF00BF00988F
:10318000FDF79CF800BF00BF904800688E490968B1
:10319000884248D98D4800688D49884205D242F25C
:1031A000107003900120029023E08848006889494C
:1031B000884205D24FF47A7003900A20029018E0FA
:1031C000824800688449884203D2642003900290B8
:1031D0000FE07E4800688149884205D20A200390AA
:1031E0004FF47A70029004E00120039042F21070D4
:1031F0000290764801680298B1FBF0FA7249039890
:1032000009684843B0FBFAF042F21071081A744999
:103210000880744800880988884208DA7048008865
:103220007049088003E042F210706D490880FEF793
:10323000C9FC002500BF00BFFDF73CF8009000BFAF
:1032400000BF6948046800BF00BF0098FDF736F86A
:1032500000BF00BF26E000BF00BFFDF72BF80090C5
:1032600000BF00BF54F8900F6060002044F8900940
:1032700000BF00BF0098FDF721F800BF00BFD4F8E1
:103280009400054400BF00BFFDF714F8009000BF94
:1032900000BFD4F8B04000BF00BF0098FDF70EF8A3
:1032A00000BF00BF002CD6D145B34948854205D2A6
:1032B00042F2107005904FF0010B1BE0454885422B
:1032C00005D24FF47A7005904FF00A0B12E0424895
:1032D000854203D26420059083460BE03F48854237
:1032E00004D20A2005904FF47A7B03E00120059078
:1032F00042F2107BB5FBFBF0049003E00020059048
:103300000120049000BF00BFFCF7D4FF009000BF75
:1033100000BF3548046800BF00BF0098FCF7CEFF2F
:1033200000BF00BF2BE0D4F89400059948430499EE
:10333000B0FBF1F086B242F21070864200D9064628
:10334000A4F88060B4F88200B04201DAA4F8826088
:1033500001AB04F1A002111D2046FEF705FF00BFDE
:1033600000BFFCF7A7FF009000BF00BFD4F8B0403B
:1033700000BF00BF0098FCF7A1FF00BF00BF002CFA
:10338000D1D11A480078012805D1002017490870CA
:1033900001A8FEF70BFBFDF77BFCA0EB0809144826
:1033A0000068484502D21248C0F8009001AA0021E6
:1033B0003846FFF7D1F8CFE63C5D000870010020E9
:1033C000545D0008640100206C01002068010020A9
:1033D000801A060000093D00005A62020084D717D7
:1033E00060010020620100207C0100205E010020BD
:1033F0007401002010B58AB0044600201F490860FF
:103400001F4908601F4908601F4908701F4908705C
:103410001F48006820B946F62B6020800AB010BD16
:103420001C4800681C490968884203D246F62C6093
:103430002080F3E7194800783F2803D346F62A6036
:103440002080EBE7032000210591CDE907040691D8
:10345000084610490968124A12680D4B1B68CDE9ED
:103460000132CDE903100D48007800230D4A0EA16A
:1034700000901248FEF7B0FB00BFCFE764010020C8
:103480006C01002068010020700100205E01002016
:10349000405D0008485D0008505D0008385D000888
:1034A000445D00080D31000875432F4F532D4949E5
:1034B000492053746174205461736B00BC5C00201C
:1034C00070B504460D4645B12A462146064800F02F
:1034D000ABFA032084F8360002E0022084F83600BC
:1034E0002046FFF7ADFD70BD940100200021C0F81B
:1034F000AC100949096819B90021C0F8B01007E0FB
:1035000005490968C0F8B01003490968C1F8AC0062
:1035100001490860704700007C010020D0F8AC2011
:10352000D0F8B0104AB90D4B196011B10023C1F8A1
:10353000AC300023C0F8B0300FE029B90023C2F846
:10354000B030C0F8AC3008E0C2F8B010C1F8AC2020
:103550000023C0F8B030C0F8AC3070477C010020C8
:103560000021044A1160044A1180044A116001805C
:10357000704700007C0100208001002078010020BD
:1035800070B5044600202060A0606060E0602061AB
:103590006061A061E06124A0206200206062A062FE
:1035A000E06220642065A4F85400002104F1580072
:1035B000FFF7C8FA0020A066E0666067A4F87C0008
:1035C000A067002506E0002104F1700040F82510F6
:1035D000681CC5B2002DF6D000203434206160662E
:1035E000A066606084F84A002067E0662081606120
:1035F000A061A4F84C00A4F84E0020656065FDF7BA
:1036000047FB0646A6650020E06560672070607095
:10361000A0704020E0700020A067E06704A0C4F81C
:103620008000343C70BD00003F5461736B000000AB
:103630002000000070B504460D46002600BF00BF04
:10364000FCF738FE064600BF00BF0020288094F833
:10365000360008285ED2DFE800F0040506071227CE
:10366000394B00BF00BF00BF00BF00BF3046FCF7B2
:1036700025FE00BF00BF47F25310288055E014F824
:103680007E0F401E207014F87E0928B9002084F8AF
:1036900036002046FFF780FC00BF00BF3046FCF735
:1036A0000DFE00BF00BF40E014F87E0F401E2070EA
:1036B00014F87E0910B9012084F8360000BF00BF5D
:1036C0003046FCF7FBFD00BF00BF2EE014F87E0F74
:1036D000401E207014F87E0910B9022084F83600CC
:1036E00000BF00BF3046FCF7E9FD00BF00BF1CE093
:1036F00014F87E0F401E207014F87E0910B90320C4
:1037000084F8360000BF00BF3046FCF7D7FD00BF8D
:1037100000BF0AE000BF00BF3046FCF7CFFD00BF8E
:1037200000BF46F62D60288070BD00BFFEF736F85A
:1037300000BFF9E708B504480068FEF7FBFB6946DF
:103740000020FEF723FB08BDBC0100202DE9F84353
:103750000446884617461D464FF0000900BF00BFCB
:10376000FCF7A8FD814600BF00BF0CB9674804689C
:1037700027640020288094F83600082876D2DFE8F5
:1037800000F0040550510607525300BF00BF00BFB0
:103790000420012804D0022813D0042833D122E0C9
:1037A000606CFF280CD100BF00BF4846FCF786FDC7
:1037B00000BF00BF46F6C55028800020BDE8F88352
:1037C00022E04FF6FF71606C88420BD100BF00BF52
:1037D0004846FCF773FD00BF00BF46F6C550288081
:1037E0000020EBE710E0606C401C58B900BF00BF40
:1037F0004846FCF763FD00BF00BF46F6C550288071
:103800000020DBE700E000BF00BF606C401C60648C
:10381000666C00BF00BF4846FCF750FD00BF00BF0C
:1038200071E000BF00BF00BF94F83400072815D135
:1038300000231A46214618460097FFF7CBFA666C1C
:1038400000BF00BF4846FCF739FD00BF00BF08F4C9
:10385000004000284AD1FDF7A1FF47E004200128DD
:1038600005D0022813D0042833D122E03FE0606C59
:10387000FF280BD100BF00BF4846FCF71FFD00BF6B
:1038800000BF46F6C5502880002097E722E04FF69B
:10389000FF71606C88420BD100BF00BF4846FCF747
:1038A0000DFD00BF00BF46F6C5502880002085E70B
:1038B00010E0606C401C58B900BF00BF4846FCF7E0
:1038C000FDFC00BF00BF46F6C5502880002075E70C
:1038D00000E000BF00BF606C401C6064666C00BF0D
:1038E00000BF4846FCF7EAFC00BF00BF0BE000BF8A
:1038F00000BF4846FCF7E2FC00BF00BF46F62D6063
:103900002880002600BF00BF304657E7BC010020DA
:1039100070B504460D46002600BF00BFFCF7CAFC88
:10392000064600BF00BF0CB93D4804683C4800682B
:1039300084420ED13B48007800280ADD00BF00BF5A
:103940003046FCF7BBFC00BF00BF46F66350288042
:1039500070BD0020288094F83600082850D2DFE897
:1039600000F0041523313F404142042084F8360022
:10397000012084F87E002046FFF762FB00BF00BFF5
:103980003046FCF79BFC00BF00BF44E0052084F8F4
:103990003600012084F87E0000BF00BF3046FCF7EF
:1039A0008DFC00BF00BF36E0062084F83600012001
:1039B00084F87E0000BF00BF3046FCF77FFC00BFEC
:1039C00000BF28E0072084F83600012084F87E003C
:1039D00000BF00BF3046FCF771FC00BF00BF1AE01B
:1039E00000BF00BF00BF94F87E00401C84F87E003A
:1039F00000BF00BF3046FCF761FC00BF00BF0AE01B
:103A000000BF00BF3046FCF759FC00BF00BF46F6C0
:103A10002D6028809CE700BFFDF7C0FE00BF97E740
:103A2000BC0100205401002070B51546066846B957
:103A30008D6400264E618E61C8610160012686801A
:103A400033E0046802682B4624E0966C9E421DD346
:103A500096696EB98B6400268E614A61C861966C66
:103A6000F61A9664916101608688761C86800CE067
:103A700094698B648C614A61C861966CF61A96648D
:103A8000916161618688761C868070BD966C9B1BF7
:103A900014465269002AD8D18B648C6100264E618D
:103AA000C86161618688761C868000BFEDE70000F2
:103AB0002DE9F04104460D4690461F46B8F1040F2B
:103AC0000ED1284800682E1A16F5803F01D8002E26
:103AD0003CD10020A06447F27E203880BDE8F08110
:103AE000B8F1080F29D11F49E06C0968081AA842EB
:103AF00005D92E461B4800682844E06426E0194991
:103B0000E06C0968081A2E1A16F5803F00D886B9AD
:103B10001449E06C0968081AB0FBF5F005FB005089
:103B2000E16C0844E0640020A06447F27E20388005
:103B3000D4E7E06C2844E06408E00DB12E4605E0CF
:103B40000020A06447F27E203880C7E7012084F877
:103B50003600324621460448FFF766FF00203880D1
:103B600000BFBBE7840100208C01002030B5C26992
:103B700083694169ABB929B90024146094808464D5
:103B8000C4611EE000248C618C6C856C2C448C64B8
:103B900011609488641E9480002444618464C4612C
:103BA0000FE0596121B18B618C6C856C2C448C6465
:103BB000002484619488641E948000244461846499
:103BC000C46130BD704700001CB500272CE001AB7C
:103BD0006A4600210846FEF7B9F9BDF8040018BB93
:103BE0001248007801281FD100BF00BFFCF762FB1C
:103BF000074600BF00BF0E480068401C0C49086023
:103C000000BF00BF3846FCF759FB00BF00BF01F002
:103C10008DFB064601F0D6FB054674190548006881
:103C2000A04201D203480460D1E700002101002036
:103C3000840100208801002010B58AB004460020CD
:103C40002049086020490860204908601E49888092
:103C5000C8801E498880C8801D48006820B947F286
:103C6000122020800AB010BD1A4800681A4909685D
:103C7000884203D247F213202080F3E717480078E8
:103C80003F2803D347F211202080EBE70B200021CF
:103C90000591CDE90704069108460E490A681049C6
:103CA00009680B4B1B68CDE90131CDE903200B48B6
:103CB000007800230B4A0CA100901048FDF78CFF00
:103CC00000BFCFE7840100208C0100209401002078
:103CD0005C5D0008645D0008505D0008585D0008E8
:103CE000605D0008C93B000875432F4F532D4949BB
:103CF00049205469636B205461736B00745D00202C
:103D000010B58AB0044600202F4908602F4908608A
:103D10002F4908802F48006840B12F4800682D497E
:103D20000968B0FBF1F02D49086006E02A480068F8
:103D30000A21B0FBF1F029490860284800682849A9
:103D4000086000202749086027490860224627A10B
:103D50002A48FDF7FDFA208808B10AB010BD2848AE
:103D6000006818B947F247302080F6E72548006818
:103D700025490968884203D247F248302080ECE7A1
:103D8000224800783F2803D347F246302080E4E7FA
:103D90000B20002105910A46CDE907040691194838
:103DA00000681B490968164B1B68CDE90131CDE954
:103DB0000302164800780023164A17A100901C48F9
:103DC000FDF70AFF00BFC8E79C010020A401002006
:103DD000A0010020705D0008545D0008B4010020BF
:103DE000B8010020B0010020AC0100204F53205446
:103DF0006D72204D75746578000000002C5E002007
:103E0000745D00087C5D0008505D00086C5D000872
:103E1000785D0008393E000875432F4F532D4949FE
:103E2000492054696D6572205461736B0000000075
:103E3000585E0020704700001CB53FE001AB6A46A9
:103E400000210846FEF782F801F05AFAFCF720FF3D
:103E500006461B480068401C194908601948046858
:103E60001FE001A8FDF7EAFCD4F81080A069401E0D
:103E7000A061A06980B9A08C022802D1206AA0614B
:103E800005E0204600F022F8032084F82600A5680B
:103E900015B12046E168A847444601A8FDF708FD92
:103EA00000BF002CDDD1FCF7F3FE871B01F034FAD4
:103EB00005480068B84201D203480760BEE7000029
:103EC000B0010020A4010020AC01002010B50E4B71
:103ED0001B68834206D101690B4B196039B100237D
:103EE0004B6104E0416902690A6102B15161012339
:103EF00080F82630002303614361044B1B885B1E5E
:103F0000024C238010BD0000A4010020A00100206D
:103F100029B1064A12680243044B1A6004E0034ABE
:103F200012688243014B1A6070470000303802402B
:103F300029B1064A12680243044B1A6004E0034A9E
:103F400012688243014B1A60704700003838024003
:103F500029B1064A12680243044B1A6004E0034A7E
:103F600012688243014B1A607047000040380240DB
:103F700029B1064A12680243044B1A6004E0034A5E
:103F800012688243014B1A607047000020380240DB
:103F900029B1064A12680243044B1A6004E0034A3E
:103FA00012688243014B1A60704700004438024097
:103FB000F0B5002100220024022500260223324F02
:103FC0003F6807F00C0121B1042905D0082937D139
:103FD00005E02E4F076036E02D4F076033E02A4F93
:103FE0003F1F3F68C7F38056274F3F1F3F6807F0CA
:103FF0003F036EB1264FB7FBF3F7DFF88CC0ACF18F
:10400000040CDCF800C0CCF3881C07FB0CF40CE0BB
:104010001E4FB7FBF3F7DFF870C0ACF1040CDCF80F
:1040200000C0CCF3881C07FB0CF4174F3F1F3F6800
:10403000C7F301477F1C7D00B4FBF5F7076002E082
:10404000124F076000BF00BF0F4F3F6807F0F0013D
:104050000909104F7A5C0768D74047600A4F3F68EC
:1040600007F4E051890A0B4F7A5C4768D7408760B4
:10407000054F3F6807F46041490B064F7A5C47687B
:10408000D740C760F0BD0000083802400024F400AB
:1040900000127A00E400002010B500BF00BFFCF75A
:1040A00009F9044600BF00BFFDF7CEF800BF00BF0E
:1040B0002046FCF703F900BF00BF1048006840F23B
:1040C000E731884205D20D480068401C0B49086062
:1040D0000EE028220949091D01F12800FCF745F9E5
:1040E00028210648001DFCF772F9002003490860EA
:1040F000FEF756FBFDF7BEF810BD0000D0440020CF
:1041000010B51548006840F4700013490860134862
:10411000006840F001001149086000200F49083193
:1041200008600E4800680E4908400C4908600D48B8
:10413000091D0860081F006820F48020091F08601E
:10414000002006490C31086001F072FA4FF000605F
:1041500001498039086010BD88ED00E00038024058
:10416000FFFFF6FE1030002421B1028842F0010268
:10417000028004E002884FF6FE731A400280704706
:104180001AB183890B43838102E083898B43838146
:104190007047000000220288184B98420ED0184B3E
:1041A00098420BD0B0F1804F08D0164B984205D002
:1041B000154B984202D0154B984204D14FF68F739D
:1041C0001A404B881A43124B984207D0114B984221
:1041D00004D04FF6FF431A400B891A4302804B6804
:1041E000C3620B880385054B984202D0044B98426A
:1041F00001D18B7A0386012383827047000001403E
:10420000000401400004004000080040000C004091
:10421000001000400014004010B500BF00BFFCF7C4
:1042200049F8044600BF00BFFDF70EF800BF00BF0D
:104230002046FCF743F800BF00BF40F225510E486E
:1042400000F076F828B140F225510B4800F04CF808
:104250000EE040F22441084800F06AF840B10648F8
:10426000008805488088054800F07EFA00F02AF9A9
:10427000FDF700F810BD000000100140AC00002068
:1042800010B500BF00BFFCF715F8044600BF00BF23
:10429000FCF7DAFF00BF00BF2046FCF70FF800BFB5
:1042A00000BF40F225510E4800F042F828B140F21C
:1042B00025510B4800F018F80FE040F2244108485F
:1042C00000F036F848B1064800880548001D00880F
:1042D000044800F049FA00F07FF9FCF7CBFF10BD6D
:1042E00000140140C800002010B50022002340F651
:1042F0006A14A14200D100BF0A1201249440A3B263
:10430000DC43048010BD21B1828942F400528281D5
:1043100004E082894DF6FF731A40828170471AB11A
:10432000838A0B43838202E0838A8B4383827047B4
:1043300070B50246002400230025002040F66A16CE
:10434000B14200D100BFC1F3421501F01F030126A5
:1043500006FA03F3012D02D19689334006E0022DBF
:1043600002D1168A334001E0968A33400C120126AE
:1043700006FA04F41688344013B10CB1012000E0B1
:10438000002070BDF0B50346002400260025002063
:1043900040F66A17B94200D100BF1846C1F3421473
:1043A00001F01F06012707FA06F5012C01D10C3098
:1043B00004E0022C01D1103000E014301AB107687B
:1043C0002F43076002E00768AF430760F0BD0000BD
:1043D0002DE9FF4705460E460024A14600BFA04632
:1043E000B08900B100BF2C8A24F44054F088044303
:1043F0002C82AC8941F20C608443B0883189084337
:10440000718908430443AC81AC8A24F44074B089B8
:104410000443AC826846FFF7CBFD2048854202D0BA
:104420001F48854202D1DDF80C9001E0DDF80890CC
:10443000A88900F4004040B109EBC90000EB091065
:1044400031684900B0FBF1F707E009EBC90000EB68
:10445000091031688900B0FBF1F76420B7FBF0F078
:1044600004012009642101FB1078A88900F40040B0
:1044700040B1322000EBC800B0FBF1F000F00700C3
:10448000044308E0322000EB08106421B0FBF1F097
:1044900000F00F0004432C81BDE8FF8700100140AD
:1044A00000140140F0EE400AF5EEC00AF1EE10FAF9
:1044B00001DB012001E04FF0FF3000EE100AB8EE02
:1044C000C00A7047002000BF76E03D49095C3D4AC4
:1044D00011703D49097807296AD2DFE801F0040E1E
:1044E0001C266934570039490978364A12789142B6
:1044F00002D10121344A11705BE034494978314AD4
:104500001278914203D102212F4A117002E000215A
:104510002D4A11704DE02D4989782A4A127891422E
:1045200002D10321284A117000BF2849C978254AC1
:104530001278914203D10521234A117002E0002133
:10454000214A117035E02149C978214A12789142F7
:104550000BDD1C4909781F4A1D4B1B78D1541C499F
:104560000978491C1A4A11700FE00021184A11708D
:104570001649097C134A1278914203D10621124A46
:10458000117002E00021104A117012E00F49497CBD
:104590000C4A1278914207D10C4A0E490B685360BD
:1045A0004B6893608968D1600021074A117000E070
:1045B00000BF00BF411CC8B2112886DB7047000055
:1045C000C047002096000020A60000206F000020B9
:1045D000A70000206C47002010B5002400BF6AE04F
:1045E0003648005D364908703648007807285ED2A4
:1045F000DFE800F0040E1C5D5D2A4D0032480078B3
:104600002F490978884202D101202E4908704FE0D5
:104610002D4840782A490978884203D10220294947
:10462000087002E000202749087041E026488078A1
:1046300023490978884203D105202249087002E005
:1046400000202049087033E01F4880781F4909780E
:1046500088420BDD1A4800781D491C4A127888549C
:104660001A480078401C194908700FE000201749CB
:1046700008701548C07C12490978884203D1062089
:104680001049087002E000200E49087010E00E4842
:10469000007D0B490978884205D110220C490A484F
:1046A000C01CFBF71DFE00200649087000E000BF9B
:1046B00000BF601CC4B2152C92DB10BD2F48002037
:1046C00097000020A800002081000020A900002001
:1046D000784700200EB500BF02A810214FF4FA63FE
:1046E0000022CDE9001011461046FDF791FF15E0BC
:1046F00000F006F900F03AF900F00CF90848C0881B
:10470000401C81B20648C18002A81021012300226A
:10471000CDE9001011461046FDF77AFFE8E70000EA
:10472000D044002010B50D490D48FCF7B7FA002120
:104730000B48FCF7CDFA0B4809490C3108600D20F5
:104740000749091D086001210548FCF7C1FA00BFAF
:104750000348FCF775FB0028FAD110BD008020202B
:10476000A06402409900002010B504466068FCF780
:1047700067FB618A081AA082E08A218B0844E082E4
:10478000E08A618A884206DBE08A618A90FBF1F266
:1047900001FB1200E082E08AA18A884215DAA08A31
:1047A000E18A401A2083208B218A884235DC002050
:1047B00007E0E28AE1681144095CA2681154411CD7
:1047C00088B2218B8142F4DC27E0A08A618A084408
:1047D000E18A401A2083208B218A88421DDC002038
:1047E00007E0E28AE1681144095CA2681154411CA7
:1047F00088B2218BA28A891A8142F2DC002009E06A
:10480000E168095C238BA2681A44A38AD21A115466
:10481000411C88B2A18A8142F2DC208B10BD2DE9B7
:10482000F04385B081460E4614461D46DDE90C78FE
:10483000009600208DF808008DF8090008208DF8FA
:104840000A00200A8DF80B00E1B28DF80C10290A3D
:104850008DF80D10E9B28DF80E10390A8DF80F1091
:10486000F9B28DF810104FEA18218DF8111008F0E8
:10487000FF018DF8121069464846FCF738F905B07B
:10488000BDE8F083002110E00A4830F8110040F242
:10489000E332904206DB074830F8110040F21A423A
:1048A000904201DD00207047491C0629ECDB012005
:1048B000F9E70000FC4400200EB500BF02A810215B
:1048C0004FF4FA630022CDE9001011461046FDF7BF
:1048D0009FFE11E00948008A401C81B2074801820E
:1048E00000F09CFB02A810210A230022CDE9001051
:1048F00011461046FDF78CFEECE70000D044002086
:1049000003484089401C81B2014841817047000042
:10491000D04400201CB50F4800F0E6FF0D4801F020
:104920009BF80020009001900A4890ED010ABDEE2E
:10493000C00A10EE100A03B2064890ED3C0ABDEE24
:10494000C00A10EE100A02B24FF400710248FFF7DD
:1049500066FF1CBD58450020006400401FB5684636
:10496000FFF726FB019804B010BD000003488089C2
:10497000401C81B20148818170470000D044002072
:1049800000B58FB0092208214D48FCF7EFFA092243
:1049900011464B48FCF7EAFA092205214848FCF782
:1049A000E5FA092206214648FCF7E0FA4FF4587070
:1049B000069002208DF81C008DF81D0000208DF857
:1049C0001E0001208DF81F0006A93D48FCF786FA5D
:1049D00001214FF0C060FFF7BBFA3A48FBF7DCFE5D
:1049E0003948FBF7D9FE00208DF8360001208DF8FC
:1049F00037008DF8380000208DF839008DF83A0026
:104A000001208DF83B0000208DF832008DF8330036
:104A100008208DF8340003208DF83500ADF8300003
:104A20000CA92948FBF761FF00208DF8330008200E
:104A30008DF8340003208DF83500ADF830000CA956
:104A40002048FBF752FF00208DF82A008DF82B003C
:104A500001208DF82C000020ADF82000ADF82200D8
:104A6000ADF82400ADF82600ADF8280001208DF83F
:104A70002D0008A8FBF7ACFE0E208DF82A0008A830
:104A8000FBF7A6FE0020019002908DF80D008DF836
:104A90000C0001208DF80E0001A90A48FCF727F848
:104AA00001A90948FCF723F8012202210548FBF778
:104AB00013FF012202210448FBF70EFF0FB000BDD7
:104AC00000040240006400400068004070B51A48CD
:104AD00000684FF47A72B0FBF2F1481EB0F1807FAB
:104AE00001D301201BE0481E4FF0E0225061501717
:104AF0000F22002807DA13071D0E104B00F00F04D9
:104B0000241F1D5503E013071C0E0D4B1C5400BF42
:104B100000204FF0E022906107201061002008B1D2
:104B200000BFFEE701217F20FFF7F2F901210846CF
:104B3000FFF7FEF970BD00000000002018ED00E056
:104B400000E400E00A48006888B10A480A49D1F840
:104B50000310016001460848D0F807004860064885
:104B6000D0F80B0008600448D0F80F004860704788
:104B70004000002048450020810000201CB5002096
:104B80000090034602464FF4007101901048FFF771
:104B900046FE002000900346024640F2FF110190BD
:104BA0000B48FFF73CFE00200090034602464FF4FE
:104BB000007101900748FFF732FE00200090034685
:104BC000024640F2FF1101900248FFF728FE1CBD8B
:104BD000006400400068004001460A7BCB7A42EA4C
:104BE0000320704708B54FF4C060FCF751FA252048
:104BF0008DF8000000208DF801008DF802000120E2
:104C00008DF803006846FCF707FA47208DF800008E
:104C100000208DF801008DF8020001208DF80300BE
:104C20006846FCF7F9F914208DF8000001208DF892
:104C300001008DF802008DF803006846FCF7ECF9DE
:104C400040208DF8000001208DF801008DF8020051
:104C50008DF803006846FCF7DFF91D208DF8000091
:104C600000208DF801008DF8020001208DF803006E
:104C70006846FCF7D1F908BD3EB505460C46012152
:104C80000846FFF765F90195ADF800400020ADF842
:104C90000800ADF8020069464FF08040FFF77AFA4D
:104CA000012211469007FFF76BFA01218807FFF7F1
:104CB0005BFA3EBD0EB500BF02A810214FF4FA63A7
:104CC0000022CDE9001011461046FDF7A1FC1AE0C4
:104CD00000F0B8F90C48007802280AD1FFF74EFF1F
:104CE000FFF7D0FD28B100200849087001200649CF
:104CF000087002A810210A230022CDE900101146F5
:104D00001046FDF785FCE3E73D0000203C00002055
:104D100000B595B001210846FFF7FAF801211020EF
:104D2000FFF736F901218805FFF7F2F800208DF82A
:104D3000520001208DF8530002208DF8500000022F
:104D4000139002208DF8510013A94F48FCF7C6F8C4
:104D50004FF48060139013A94B48FCF7BFF807226B
:104D600009214948FCF702F907220A214648FCF7C5
:104D7000FDF84FF4E1300F900020ADF84000ADF8A1
:104D80004200ADF84400ADF848000C20ADF84600F4
:104D90000FA93E48FFF71CFB012240F225513B487A
:104DA000FFF7F0FA012240F224413848FFF7EAFA0F
:104DB000012240213548FFF7B2FA01228021334811
:104DC000FFF7ADFA01213148FFF79DFA3048FBF7B4
:104DD0008BFF4FF0006000902C48001D01902D4883
:104DE00002900020039024200490002005904FF4AE
:104DF000806006900020079008904FF48070099022
:104E000040020A9000200B9003200C9000200D908F
:104E10000E9069461E48FCF735F801211C48FBF747
:104E200057FF1B487830FBF75FFF4FF000600090A2
:104E30001648001D0190402003900020049005902A
:104E40004FF48060069000200790089009904FF47E
:104E500040300A9000200B9003200C9000200D9011
:104E60000E9069460A487830FCF70CF801221021B0
:104E700007487830FBF7E8FF002105487830FBF75A
:104E800027FF15B000BD00000000024000100140E7
:104E9000406402409C47002000B595B001210420E9
:104EA000FFF736F801212020FFF772F8012188056D
:104EB000FFF72EF800208DF8520001208DF85300E6
:104EC00002208DF850004020139002208DF85100F0
:104ED00013A94E48FCF702F88020139013A94B4801
:104EE000FBF7FCFF082206214848FCF73FF80822A0
:104EF00007214648FCF73AF84FF461200F90002054
:104F0000ADF84000ADF84200ADF84400ADF84800FF
:104F10000C20ADF846000FA93D48FFF759FA0122D1
:104F200040F225513A48FFF72DFA012240F2244180
:104F30003748FFF727FA012240213548FFF7EFF9FC
:104F4000012280213248FFF7EAF901213048FFF7BA
:104F5000DAF93048FBF7C8FE4FF0206000902C488B
:104F6000001D01902C480290002003903C200490EA
:104F7000002005904FF48060069000200790089074
:104F80004FF48070099040020A9000200B9003209B
:104F90000C9000200D900E9069461E48FBF772FFA2
:104FA00001211C48FBF794FE1A487830FBF79CFE61
:104FB0004FF0206000901648001D019040200390A3
:104FC0000020049005904FF4806006900020079028
:104FD000089009904FF440300A9000200B90032075
:104FE0000C9000200D900E9069460A487830FBF72F
:104FF00049FF0122102107487830FBF725FF0021E7
:1050000004487830FBF764FE15B000BD000802408C
:105010000014014028640240F347002010B5FFF758
:1050200091FD06490648006EC1F803000448D0F817
:105030004C01C1F80700FFF775FB10BD9900002077
:10504000584500200E480078012802D10D49C8704B
:1050500014E000200B49C8700B48007860B10128AB
:1050600002D0022809D103E001210648017104E0C1
:1050700002210448017100E000BF00BF704700003A
:105080003D000020600000203C00002090ED031A4D
:10509000D0ED041AF7EE000A41EE210AB7EE001A2D
:1050A000C1EE201AB0EE610AF7EE000A70EEC00AF7
:1050B00090ED021A60EE810A90ED001A40EE010AAE
:1050C000C0ED010AD0ED010AC0ED000A704710B52D
:1050D000FFF716F8FFF7FAFCFFF752FCFFF782FD27
:1050E00042F2CF0140F2E140FFF7C6FDFFF710FEAC
:1050F000FFF7D2FE00F02AF810BDF0EE401AF4EEF1
:10510000E01AF1EE10FA02D2B0EE600A7047F4EE47
:10511000C11AF1EE10FA02DDB0EE410AF6E7B0EE88
:10512000610AF3E701464A7B02F080023AB18B7BC9
:105130004A7B43EA0222044B42EA030003E08B7BF2
:105140004A7B43EA022070470000FFFF1CB50020A5
:105150008DF8060001208DF8040000208DF807006E
:105160004FF48070009003208DF8050069460B48CD
:10517000FBF7B4FE00208DF8060001208DF8040036
:1051800000208DF807004FF40070009003208DF888
:10519000050069460148FBF7A1FE1CBD000C02405A
:1051A00030B58BB00446002500BFFBF733FD0AA8DD
:1051B000FCF790FC00BF00BFFBF77CF8054600BF82
:1051C00000BF0AA8032100220592CDE9062108901C
:1051D00010464FF480616622264BCDE90132CDE9BD
:1051E000031004200023244A24A100902848FCF73F
:1051F000F3FC0AA8032100220592CDE906210890BC
:1052000010464FF480616622224BCDE90132CDE990
:10521000031005200023204A20A100902348FCF71A
:10522000DBFC0AA8032100220592CDE906210890A3
:1052300010464FF4806166221D4BCDE90132CDE965
:105240000310062000231B4A1BA100901D48FCF7F9
:10525000C3FC01201C49087000BF00BF2846FBF7B3
:105260002DF800BF00BF0AA90020FCF78FFD0BB08E
:1052700030BD000038130020B54C000873797374FA
:10528000656D5F6D6F6E69746F725F7461736B00D3
:1052900080120020A8340020B94800087472616EA2
:1052A000736D69745F7461736B000000F0330020EC
:1052B000F0230020D5460008616374696F6E5F7447
:1052C00061736B00382300203D00002010B50446B8
:1052D00004F1080000BFA0F1080404F15C0000BF65
:1052E000A0F15C0404F1B00000F082F9A0F1B00478
:1052F00004F1CC0000BFA0F1CC04204610BD00009A
:105300000EB502A801AB0022114600900148FCF73F
:1053100063F80EBD2C5E002008B56A4600210248E5
:10532000FCF782F908BD00002C5E00202DE9F04753
:105330004FF0000900BF00BFFAF7BCFF814600BF75
:1053400000BFFBF7A5FC064600271D4D2C683CB3AB
:10535000A06C401EA0641FE0781C87B294F8360051
:10536000012806D1002084F836002046FDF714FEFF
:1053700006E094F83600052802D1042084F83600AF
:10538000606928602C6814B90020A88007E0A8880C
:10539000401EA8800020A061A06C0028DCD000BFC7
:1053A000EF80FBF775FCA0EB060800BF00BF484686
:1053B000FAF784FF00BF00BF4046BDE8F087000059
:1053C0008C0100202DE9F0474FF0000900BF00BF1D
:1053D000FAF770FF814600BF00BFFBF759FC064695
:1053E00000272C4D2C68002C45D0A06C401EA064DA
:1053F0003DE0781C87B294F83600032815D10020D0
:105400002065A4F85400FBF743FC20642046FDF718
:10541000A8FC2046FDF7C0FD00203434A070032016
:105420006070002004F8340915E094F8360007286D
:1054300011D100202065A4F85400FBF729FC20645A
:105440002046FDF78EFC04203434A07003206070E9
:10545000002004F83409606928602C6814B9002021
:10546000A88007E0A888401EA8800020A061A06C4A
:105470000028BED000BFEF80FBF70AFCA0EB0608B7
:1054800000BF00BF4846FAF719FF00BF00BF404603
:10549000BDE8F0879401002010B5002002490860A3
:1054A000FBF7DCFB10BD0000F400002010B5FBF79B
:1054B000B7FB10BD10B52DED068B04469FED4B0AD2
:1054C000B0EE409A94ED000AD4ED060A30EE600A80
:1054D00084ED020A94ED030AD4ED040A20EE200ABA
:1054E000F0EE408A94ED040A20EE280AB0EE40AABD
:1054F00094ED020AD4ED040A94ED011A00EE810A3B
:10550000B0EE408AB0EE480AF0EEC00A94ED030A0D
:10551000B2EE001A20EE010A20EE800AF0EE409A68
:1055200048EEA89AB0EE690A00F03FFBF0EE40AA00
:10553000B0EE480AF0EEC00AF4EECA0AF1EE10FA34
:1055400012DDB0EE480AFEF7ADFF7AEEE80A20EE73
:10555000200AF0EE000A80EE201A94ED010A31EEE6
:10556000000AB0EE409A09E0D4ED040A88EE200A61
:10557000D4ED010A30EE200AB0EE409A00BFB0EE42
:10558000C90AB4EEE80AF1EE10FA0EDDB0EE490AEF
:10559000FEF788FFD4ED030ABFEE001A60EE810A21
:1055A00020EE200AB0EE408A0BE094ED030AFFEEF5
:1055B000000A20EE200A20EE090AC0EE280AB0EE0A
:1055C000608A94ED000AD4ED050A94ED011A00EE0C
:1055D000810A84ED000A94ED010AD4ED050A00EE7B
:1055E000880A84ED010ABDEC068B10BD00000000A6
:1055F0009FED0C0A80ED000A9FED0A0A80ED010A7A
:105600009FED080A80ED020A9FED070A80ED030A6C
:105610009FED060A80ED040A9FED040A80ED050A5D
:10562000704700000000000000007A446F12833AC7
:105630000CB50020019000903448006840F48030A0
:105640003249086000BF3148006800F40030009023
:105650000198401C0190009818B90198B0F5A04F2E
:10566000F1D12A48006800F4003010B10120009008
:1056700001E0002000900098012846D123484030E6
:10568000006840F08050214940310860204800689F
:1056900040F440401E4908601C48083000681B491F
:1056A000083108600846006840F400400860084679
:1056B000006840F4A05008601648091F0860081FE1
:1056C000006840F08070091F086000BF0F48006844
:1056D00000F000700028F9D040F205700E49086013
:1056E0000A480830006820F00300084908310860C3
:1056F0000846006840F00200086000BF0348083018
:10570000006800F00C000828F8D10CBD00380240F9
:105710000070004008544007003C024010B52DEDD9
:10572000028B0446002008EE100A94ED000AD4ED26
:10573000010A30EE600A84ED060A94ED080AD4ED01
:10574000060A30EE200A84ED080AD4ED091AB0EEFC
:10575000611AD4ED091AF1EE611AF0EE610AD4ED86
:10576000081AB0EE610AFFF7C8FC84ED080AD4ED10
:10577000021A94ED062A61EE821AB0EE610AD4EDA7
:105780000A1AB0EE611AD4ED0A1AF1EE611AF0EEBF
:10579000610AFFF7B2FC84ED0F0AD4ED031A94ED11
:1057A000082A61EE821AB0EE610AD4ED0B1AB0EE4F
:1057B000611AD4ED0B1AF1EE611AF0EE610AFFF7EF
:1057C0009CFC84ED100AD4ED061A94ED072A71EEC4
:1057D000C21A94ED052A61EE821AB0EE610AD4ED88
:1057E0000C1AB0EE611AD4ED0C1AF1EE611AF0EE5B
:1057F000610AFFF782FC84ED110AD4ED060AB0EECF
:10580000600A00F0CDF9D4ED0E0AB4EEE00AF1EE34
:1058100010FA02DB002008EE100A012008EE100A40
:1058200094ED110ADFED2D0AB4EEE00AF1EE10FA64
:1058300004DD94ED110A2A4880ED020A2848FFF79A
:1058400025FCD4ED060AB0EE600A00F0A9F9D4ED0B
:105850000D0AB4EEE00AF1EE10FA17D894ED0F0A33
:1058600094ED101A1F48007800EE900AF8EE600AD6
:1058700061EE200AB8EE481A00EE810A1848D0ED11
:10588000010A30EE200A84ED120A0EE094ED0F0AB0
:10589000D4ED100AB8EE481A00EE810A1048D0ED97
:1058A000010A30EE200A84ED120A94ED060A84ED16
:1058B000070AD4ED131AB0EE611AD4ED131AF1EE03
:1058C000611AF0EE610AD4ED121AB0EE610AFFF728
:1058D00014FC84ED120ABDEC028B10BDCDCCCC3D86
:1058E000440000205800002010B50446124890EDF6
:1058F000010A84ED830A04F5FA70FFF7DBFDD4EDAD
:105900007D0AB0EE600A9FED0D1ADFED0D0AFFF77C
:10591000F4FB84ED520A04F5A470FFF7FFFE94ED4A
:10592000640A84ED3D0A04F1F400FFF7F7FE94EDFC
:105930004F0A84ED3C0A10BD484500200000964403
:10594000000000009FED3B0A80ED7A0A9FED390AC6
:1059500080ED7B0A9FED380A80ED790A9FED350ACC
:1059600080ED810A9FED330A80ED820A9FED330AB4
:1059700080ED800A9FED320A80ED190A9FED310A11
:1059800080ED040AB2EE040A80ED540A9FED2A0A63
:1059900080ED3F0A9FED2C0A80ED2A0A9FED2A0A2E
:1059A00080ED210A9FED280A80ED230A9FED260A4B
:1059B00080ED220A9FED250A80ED0C0A9FED230A57
:1059C00080ED150A9FED200A80ED650A9FED1E0A05
:1059D00080ED5C0A9FED1C0A80ED5E0A9FED1A0ABD
:1059E00080ED5D0A9FED1A0A80ED470A9FED180AC7
:1059F00080ED500A9FED170A80ED370A41F6FF72DD
:105A0000E0210A50B3EE030A80ED720AC0F8CC21FF
:105A10009FED080A80ED2B0A9FED060A80ED2B0A08
:105A20009FED040A80ED510A9FED020A80ED510AB4
:105A3000704700006F12833A0000C84200002F44F4
:105A4000000020420000484300007A4400401C4609
:105A500000007A460080474410B50446124890ED95
:105A6000000A84ED7C0A04F5EC70FFF723FDD4ED09
:105A7000760AB0EE600A9FED0D1ADFED0D0AFFF712
:105A80003CFB84ED170A04F15C00FFF747FE94ED40
:105A9000290A84ED020A04F10800FFF73FFE94EDA5
:105AA000140A84ED010A10BD4845002000000000E2
:105AB000000048C210B5D0E90023D21A82604369C1
:105AC0005A4202EBD2748368B3EB640F0BDA29B944
:105AD0004269521C83681A44826016E0826802F5AB
